{
	"ExerciseOne/exercise1.sol": {
		"Voting": {
			"abi": [
				{
					"inputs": [],
					"stateMutability": "nonpayable",
					"type": "constructor"
				},
				{
					"anonymous": false,
					"inputs": [
						{
							"indexed": true,
							"internalType": "address",
							"name": "oldOwner",
							"type": "address"
						},
						{
							"indexed": true,
							"internalType": "address",
							"name": "newOwner",
							"type": "address"
						}
					],
					"name": "OwnerSet",
					"type": "event"
				},
				{
					"anonymous": false,
					"inputs": [
						{
							"indexed": false,
							"internalType": "uint256",
							"name": "proposalId",
							"type": "uint256"
						},
						{
							"indexed": false,
							"internalType": "uint256",
							"name": "votes",
							"type": "uint256"
						},
						{
							"indexed": false,
							"internalType": "address",
							"name": "voter",
							"type": "address"
						}
					],
					"name": "ProposalVoted",
					"type": "event"
				},
				{
					"inputs": [
						{
							"internalType": "uint256[]",
							"name": "_proposalIds",
							"type": "uint256[]"
						}
					],
					"name": "addProposals",
					"outputs": [],
					"stateMutability": "nonpayable",
					"type": "function"
				},
				{
					"inputs": [],
					"name": "calculateWinner",
					"outputs": [
						{
							"internalType": "uint256",
							"name": "proposalId",
							"type": "uint256"
						}
					],
					"stateMutability": "view",
					"type": "function"
				},
				{
					"inputs": [
						{
							"internalType": "address",
							"name": "newOwner",
							"type": "address"
						}
					],
					"name": "changeOwner",
					"outputs": [],
					"stateMutability": "nonpayable",
					"type": "function"
				},
				{
					"inputs": [
						{
							"internalType": "address[]",
							"name": "voters",
							"type": "address[]"
						}
					],
					"name": "giveVoterRights",
					"outputs": [],
					"stateMutability": "nonpayable",
					"type": "function"
				},
				{
					"inputs": [],
					"name": "owner",
					"outputs": [
						{
							"internalType": "address",
							"name": "",
							"type": "address"
						}
					],
					"stateMutability": "view",
					"type": "function"
				},
				{
					"inputs": [
						{
							"internalType": "uint256",
							"name": "proposalId",
							"type": "uint256"
						}
					],
					"name": "vote",
					"outputs": [],
					"stateMutability": "nonpayable",
					"type": "function"
				}
			],
			"devdoc": {
				"kind": "dev",
				"methods": {
					"changeOwner(address)": {
						"details": "Change owner",
						"params": {
							"newOwner": "address of new owner"
						}
					}
				},
				"version": 1
			},
			"evm": {
				"assembly": "    /* \"ExerciseOne/exercise1.sol\":1307:3099  contract Voting is Owner {... */\n  mstore(0x40, 0x80)\n    /* \"ExerciseOne/exercise1.sol\":1952:2012  constructor(){... */\n  callvalue\n  dup1\n  iszero\n  tag_1\n  jumpi\n  0x00\n  dup1\n  revert\ntag_1:\n  pop\n    /* \"ExerciseOne/exercise1.sol\":947:957  msg.sender */\n  caller\n    /* \"ExerciseOne/exercise1.sol\":939:944  owner */\n  0x00\n  dup1\n    /* \"ExerciseOne/exercise1.sol\":939:957  owner = msg.sender */\n  0x0100\n  exp\n  dup2\n  sload\n  dup2\n  0xffffffffffffffffffffffffffffffffffffffff\n  mul\n  not\n  and\n  swap1\n  dup4\n  0xffffffffffffffffffffffffffffffffffffffff\n  and\n  mul\n  or\n  swap1\n  sstore\n  pop\n    /* \"ExerciseOne/exercise1.sol\":1072:1077  owner */\n  0x00\n  dup1\n  sload\n  swap1\n  0x0100\n  exp\n  swap1\n  div\n  0xffffffffffffffffffffffffffffffffffffffff\n  and\n    /* \"ExerciseOne/exercise1.sol\":1051:1078  OwnerSet(address(0), owner) */\n  0xffffffffffffffffffffffffffffffffffffffff\n  and\n    /* \"ExerciseOne/exercise1.sol\":1068:1069  0 */\n  0x00\n    /* \"ExerciseOne/exercise1.sol\":1051:1078  OwnerSet(address(0), owner) */\n  0xffffffffffffffffffffffffffffffffffffffff\n  and\n  0x342827c97908e5e2f71151c08502a66d44b6f758e3ac2f1de95f02eb95f0a735\n  mload(0x40)\n  mload(0x40)\n  dup1\n  swap2\n  sub\n  swap1\n  log3\n    /* \"ExerciseOne/exercise1.sol\":2001:2005  1000 */\n  0x03e8\n    /* \"ExerciseOne/exercise1.sol\":1986:1998  block.number */\n  number\n    /* \"ExerciseOne/exercise1.sol\":1986:2005  block.number + 1000 */\n  tag_6\n  swap2\n  swap1\n  tag_7\n  jump\t// in\ntag_6:\n    /* \"ExerciseOne/exercise1.sol\":1975:1983  deadline */\n  0x04\n    /* \"ExerciseOne/exercise1.sol\":1975:2005  deadline = block.number + 1000 */\n  dup2\n  swap1\n  sstore\n  pop\n    /* \"ExerciseOne/exercise1.sol\":1307:3099  contract Voting is Owner {... */\n  jump(tag_8)\n    /* \"#utility.yul\":7:84   */\ntag_9:\n    /* \"#utility.yul\":44:51   */\n  0x00\n    /* \"#utility.yul\":73:78   */\n  dup2\n    /* \"#utility.yul\":62:78   */\n  swap1\n  pop\n    /* \"#utility.yul\":7:84   */\n  swap2\n  swap1\n  pop\n  jump\t// out\n    /* \"#utility.yul\":90:270   */\ntag_10:\n    /* \"#utility.yul\":138:215   */\n  0x4e487b7100000000000000000000000000000000000000000000000000000000\n    /* \"#utility.yul\":135:136   */\n  0x00\n    /* \"#utility.yul\":128:216   */\n  mstore\n    /* \"#utility.yul\":235:239   */\n  0x11\n    /* \"#utility.yul\":232:233   */\n  0x04\n    /* \"#utility.yul\":225:240   */\n  mstore\n    /* \"#utility.yul\":259:263   */\n  0x24\n    /* \"#utility.yul\":256:257   */\n  0x00\n    /* \"#utility.yul\":249:264   */\n  revert\n    /* \"#utility.yul\":276:467   */\ntag_7:\n    /* \"#utility.yul\":316:319   */\n  0x00\n    /* \"#utility.yul\":335:355   */\n  tag_15\n    /* \"#utility.yul\":353:354   */\n  dup3\n    /* \"#utility.yul\":335:355   */\n  tag_9\n  jump\t// in\ntag_15:\n    /* \"#utility.yul\":330:355   */\n  swap2\n  pop\n    /* \"#utility.yul\":369:389   */\n  tag_16\n    /* \"#utility.yul\":387:388   */\n  dup4\n    /* \"#utility.yul\":369:389   */\n  tag_9\n  jump\t// in\ntag_16:\n    /* \"#utility.yul\":364:389   */\n  swap3\n  pop\n    /* \"#utility.yul\":412:413   */\n  dup3\n    /* \"#utility.yul\":409:410   */\n  dup3\n    /* \"#utility.yul\":405:414   */\n  add\n    /* \"#utility.yul\":398:414   */\n  swap1\n  pop\n    /* \"#utility.yul\":433:436   */\n  dup1\n    /* \"#utility.yul\":430:431   */\n  dup3\n    /* \"#utility.yul\":427:437   */\n  gt\n    /* \"#utility.yul\":424:460   */\n  iszero\n  tag_17\n  jumpi\n    /* \"#utility.yul\":440:458   */\n  tag_18\n  tag_10\n  jump\t// in\ntag_18:\n    /* \"#utility.yul\":424:460   */\ntag_17:\n    /* \"#utility.yul\":276:467   */\n  swap3\n  swap2\n  pop\n  pop\n  jump\t// out\n    /* \"ExerciseOne/exercise1.sol\":1307:3099  contract Voting is Owner {... */\ntag_8:\n  dataSize(sub_0)\n  dup1\n  dataOffset(sub_0)\n  0x00\n  codecopy\n  0x00\n  return\nstop\n\nsub_0: assembly {\n        /* \"ExerciseOne/exercise1.sol\":1307:3099  contract Voting is Owner {... */\n      mstore(0x40, 0x80)\n      callvalue\n      dup1\n      iszero\n      tag_1\n      jumpi\n      0x00\n      dup1\n      revert\n    tag_1:\n      pop\n      jumpi(tag_2, lt(calldatasize, 0x04))\n      shr(0xe0, calldataload(0x00))\n      dup1\n      0x0121b93f\n      eq\n      tag_3\n      jumpi\n      dup1\n      0x1ad1c9e9\n      eq\n      tag_4\n      jumpi\n      dup1\n      0x29eb7fb5\n      eq\n      tag_5\n      jumpi\n      dup1\n      0x8da5cb5b\n      eq\n      tag_6\n      jumpi\n      dup1\n      0xa6f9dae1\n      eq\n      tag_7\n      jumpi\n      dup1\n      0xea35e805\n      eq\n      tag_8\n      jumpi\n    tag_2:\n      0x00\n      dup1\n      revert\n        /* \"ExerciseOne/exercise1.sol\":2018:2222  function vote(uint proposalId) public canVote {... */\n    tag_3:\n      tag_9\n      0x04\n      dup1\n      calldatasize\n      sub\n      dup2\n      add\n      swap1\n      tag_10\n      swap2\n      swap1\n      tag_11\n      jump\t// in\n    tag_10:\n      tag_12\n      jump\t// in\n    tag_9:\n      stop\n        /* \"ExerciseOne/exercise1.sol\":2228:2401  function giveVoterRights(address[] memory voters) public isOwner{... */\n    tag_4:\n      tag_13\n      0x04\n      dup1\n      calldatasize\n      sub\n      dup2\n      add\n      swap1\n      tag_14\n      swap2\n      swap1\n      tag_15\n      jump\t// in\n    tag_14:\n      tag_16\n      jump\t// in\n    tag_13:\n      stop\n        /* \"ExerciseOne/exercise1.sol\":2407:2583  function addProposals(uint[] memory _proposalIds) public {... */\n    tag_5:\n      tag_17\n      0x04\n      dup1\n      calldatasize\n      sub\n      dup2\n      add\n      swap1\n      tag_18\n      swap2\n      swap1\n      tag_19\n      jump\t// in\n    tag_18:\n      tag_20\n      jump\t// in\n    tag_17:\n      stop\n        /* \"ExerciseOne/exercise1.sol\":148:168  address public owner */\n    tag_6:\n      tag_21\n      tag_22\n      jump\t// in\n    tag_21:\n      mload(0x40)\n      tag_23\n      swap2\n      swap1\n      tag_24\n      jump\t// in\n    tag_23:\n      mload(0x40)\n      dup1\n      swap2\n      sub\n      swap1\n      return\n        /* \"ExerciseOne/exercise1.sol\":1176:1303  function changeOwner(address newOwner) public isOwner {... */\n    tag_7:\n      tag_25\n      0x04\n      dup1\n      calldatasize\n      sub\n      dup2\n      add\n      swap1\n      tag_26\n      swap2\n      swap1\n      tag_27\n      jump\t// in\n    tag_26:\n      tag_28\n      jump\t// in\n    tag_25:\n      stop\n        /* \"ExerciseOne/exercise1.sol\":2589:3097  function calculateWinner() public view returns(uint proposalId){... */\n    tag_8:\n      tag_29\n      tag_30\n      jump\t// in\n    tag_29:\n      mload(0x40)\n      tag_31\n      swap2\n      swap1\n      tag_32\n      jump\t// in\n    tag_31:\n      mload(0x40)\n      dup1\n      swap2\n      sub\n      swap1\n      return\n        /* \"ExerciseOne/exercise1.sol\":2018:2222  function vote(uint proposalId) public canVote {... */\n    tag_12:\n        /* \"ExerciseOne/exercise1.sol\":1803:1814  voterRights */\n      0x03\n        /* \"ExerciseOne/exercise1.sol\":1803:1826  voterRights[msg.sender] */\n      0x00\n        /* \"ExerciseOne/exercise1.sol\":1815:1825  msg.sender */\n      caller\n        /* \"ExerciseOne/exercise1.sol\":1803:1826  voterRights[msg.sender] */\n      0xffffffffffffffffffffffffffffffffffffffff\n      and\n      0xffffffffffffffffffffffffffffffffffffffff\n      and\n      dup2\n      mstore\n      0x20\n      add\n      swap1\n      dup2\n      mstore\n      0x20\n      add\n      0x00\n      keccak256\n      0x00\n      swap1\n      sload\n      swap1\n      0x0100\n      exp\n      swap1\n      div\n      0xff\n      and\n        /* \"ExerciseOne/exercise1.sol\":1795:1848  require(voterRights[msg.sender], \"You may not vote!\") */\n      tag_34\n      jumpi\n      mload(0x40)\n      0x08c379a000000000000000000000000000000000000000000000000000000000\n      dup2\n      mstore\n      0x04\n      add\n      tag_35\n      swap1\n      tag_36\n      jump\t// in\n    tag_35:\n      mload(0x40)\n      dup1\n      swap2\n      sub\n      swap1\n      revert\n    tag_34:\n        /* \"ExerciseOne/exercise1.sol\":1881:1889  deadline */\n      sload(0x04)\n        /* \"ExerciseOne/exercise1.sol\":1866:1878  block.number */\n      number\n        /* \"ExerciseOne/exercise1.sol\":1866:1889  block.number < deadline */\n      lt\n        /* \"ExerciseOne/exercise1.sol\":1858:1928  require(block.number < deadline, \"Deadline is passed, no more voting\") */\n      tag_37\n      jumpi\n      mload(0x40)\n      0x08c379a000000000000000000000000000000000000000000000000000000000\n      dup2\n      mstore\n      0x04\n      add\n      tag_38\n      swap1\n      tag_39\n      jump\t// in\n    tag_38:\n      mload(0x40)\n      dup1\n      swap2\n      sub\n      swap1\n      revert\n    tag_37:\n        /* \"ExerciseOne/exercise1.sol\":2074:2083  proposals */\n      0x01\n        /* \"ExerciseOne/exercise1.sol\":2074:2095  proposals[proposalId] */\n      0x00\n        /* \"ExerciseOne/exercise1.sol\":2084:2094  proposalId */\n      dup3\n        /* \"ExerciseOne/exercise1.sol\":2074:2095  proposals[proposalId] */\n      dup2\n      mstore\n      0x20\n      add\n      swap1\n      dup2\n      mstore\n      0x20\n      add\n      0x00\n      keccak256\n      0x00\n        /* \"ExerciseOne/exercise1.sol\":2074:2097  proposals[proposalId]++ */\n      dup2\n      sload\n      dup1\n      swap3\n      swap2\n      swap1\n      tag_41\n      swap1\n      tag_42\n      jump\t// in\n    tag_41:\n      swap2\n      swap1\n      pop\n      sstore\n      pop\n        /* \"ExerciseOne/exercise1.sol\":2134:2139  false */\n      0x00\n        /* \"ExerciseOne/exercise1.sol\":2108:2119  voterRights */\n      0x03\n        /* \"ExerciseOne/exercise1.sol\":2108:2131  voterRights[msg.sender] */\n      0x00\n        /* \"ExerciseOne/exercise1.sol\":2120:2130  msg.sender */\n      caller\n        /* \"ExerciseOne/exercise1.sol\":2108:2131  voterRights[msg.sender] */\n      0xffffffffffffffffffffffffffffffffffffffff\n      and\n      0xffffffffffffffffffffffffffffffffffffffff\n      and\n      dup2\n      mstore\n      0x20\n      add\n      swap1\n      dup2\n      mstore\n      0x20\n      add\n      0x00\n      keccak256\n      0x00\n        /* \"ExerciseOne/exercise1.sol\":2108:2139  voterRights[msg.sender] = false */\n      0x0100\n      exp\n      dup2\n      sload\n      dup2\n      0xff\n      mul\n      not\n      and\n      swap1\n      dup4\n      iszero\n      iszero\n      mul\n      or\n      swap1\n      sstore\n      pop\n        /* \"ExerciseOne/exercise1.sol\":2155:2215  ProposalVoted(proposalId, proposals[proposalId], msg.sender) */\n      0x4cc53fbb0c3386a0a08451e0710dd6dfaf4631121566865cfbfc744bdb1f2512\n        /* \"ExerciseOne/exercise1.sol\":2169:2179  proposalId */\n      dup2\n        /* \"ExerciseOne/exercise1.sol\":2181:2190  proposals */\n      0x01\n        /* \"ExerciseOne/exercise1.sol\":2181:2202  proposals[proposalId] */\n      0x00\n        /* \"ExerciseOne/exercise1.sol\":2191:2201  proposalId */\n      dup5\n        /* \"ExerciseOne/exercise1.sol\":2181:2202  proposals[proposalId] */\n      dup2\n      mstore\n      0x20\n      add\n      swap1\n      dup2\n      mstore\n      0x20\n      add\n      0x00\n      keccak256\n      sload\n        /* \"ExerciseOne/exercise1.sol\":2204:2214  msg.sender */\n      caller\n        /* \"ExerciseOne/exercise1.sol\":2155:2215  ProposalVoted(proposalId, proposals[proposalId], msg.sender) */\n      mload(0x40)\n      tag_43\n      swap4\n      swap3\n      swap2\n      swap1\n      tag_44\n      jump\t// in\n    tag_43:\n      mload(0x40)\n      dup1\n      swap2\n      sub\n      swap1\n      log1\n        /* \"ExerciseOne/exercise1.sol\":2018:2222  function vote(uint proposalId) public canVote {... */\n      pop\n      jump\t// out\n        /* \"ExerciseOne/exercise1.sol\":2228:2401  function giveVoterRights(address[] memory voters) public isOwner{... */\n    tag_16:\n        /* \"ExerciseOne/exercise1.sol\":803:808  owner */\n      0x00\n      dup1\n      sload\n      swap1\n      0x0100\n      exp\n      swap1\n      div\n      0xffffffffffffffffffffffffffffffffffffffff\n      and\n        /* \"ExerciseOne/exercise1.sol\":789:808  msg.sender == owner */\n      0xffffffffffffffffffffffffffffffffffffffff\n      and\n        /* \"ExerciseOne/exercise1.sol\":789:799  msg.sender */\n      caller\n        /* \"ExerciseOne/exercise1.sol\":789:808  msg.sender == owner */\n      0xffffffffffffffffffffffffffffffffffffffff\n      and\n      eq\n        /* \"ExerciseOne/exercise1.sol\":781:832  require(msg.sender == owner, \"Caller is not owner\") */\n      tag_46\n      jumpi\n      mload(0x40)\n      0x08c379a000000000000000000000000000000000000000000000000000000000\n      dup2\n      mstore\n      0x04\n      add\n      tag_47\n      swap1\n      tag_48\n      jump\t// in\n    tag_47:\n      mload(0x40)\n      dup1\n      swap2\n      sub\n      swap1\n      revert\n    tag_46:\n        /* \"ExerciseOne/exercise1.sol\":2306:2312  uint i */\n      0x00\n        /* \"ExerciseOne/exercise1.sol\":2302:2395  for(uint i = 0; i < voters.length; i++){... */\n    tag_50:\n        /* \"ExerciseOne/exercise1.sol\":2322:2328  voters */\n      dup2\n        /* \"ExerciseOne/exercise1.sol\":2322:2335  voters.length */\n      mload\n        /* \"ExerciseOne/exercise1.sol\":2318:2319  i */\n      dup2\n        /* \"ExerciseOne/exercise1.sol\":2318:2335  i < voters.length */\n      lt\n        /* \"ExerciseOne/exercise1.sol\":2302:2395  for(uint i = 0; i < voters.length; i++){... */\n      iszero\n      tag_51\n      jumpi\n        /* \"ExerciseOne/exercise1.sol\":2380:2384  true */\n      0x01\n        /* \"ExerciseOne/exercise1.sol\":2355:2366  voterRights */\n      0x03\n        /* \"ExerciseOne/exercise1.sol\":2355:2377  voterRights[voters[i]] */\n      0x00\n        /* \"ExerciseOne/exercise1.sol\":2367:2373  voters */\n      dup5\n        /* \"ExerciseOne/exercise1.sol\":2374:2375  i */\n      dup5\n        /* \"ExerciseOne/exercise1.sol\":2367:2376  voters[i] */\n      dup2\n      mload\n      dup2\n      lt\n      tag_53\n      jumpi\n      tag_54\n      tag_55\n      jump\t// in\n    tag_54:\n    tag_53:\n      0x20\n      mul\n      0x20\n      add\n      add\n      mload\n        /* \"ExerciseOne/exercise1.sol\":2355:2377  voterRights[voters[i]] */\n      0xffffffffffffffffffffffffffffffffffffffff\n      and\n      0xffffffffffffffffffffffffffffffffffffffff\n      and\n      dup2\n      mstore\n      0x20\n      add\n      swap1\n      dup2\n      mstore\n      0x20\n      add\n      0x00\n      keccak256\n      0x00\n        /* \"ExerciseOne/exercise1.sol\":2355:2384  voterRights[voters[i]] = true */\n      0x0100\n      exp\n      dup2\n      sload\n      dup2\n      0xff\n      mul\n      not\n      and\n      swap1\n      dup4\n      iszero\n      iszero\n      mul\n      or\n      swap1\n      sstore\n      pop\n        /* \"ExerciseOne/exercise1.sol\":2337:2340  i++ */\n      dup1\n      dup1\n      tag_56\n      swap1\n      tag_42\n      jump\t// in\n    tag_56:\n      swap2\n      pop\n      pop\n        /* \"ExerciseOne/exercise1.sol\":2302:2395  for(uint i = 0; i < voters.length; i++){... */\n      jump(tag_50)\n    tag_51:\n      pop\n        /* \"ExerciseOne/exercise1.sol\":2228:2401  function giveVoterRights(address[] memory voters) public isOwner{... */\n      pop\n      jump\t// out\n        /* \"ExerciseOne/exercise1.sol\":2407:2583  function addProposals(uint[] memory _proposalIds) public {... */\n    tag_20:\n        /* \"ExerciseOne/exercise1.sol\":2478:2484  uint i */\n      0x00\n        /* \"ExerciseOne/exercise1.sol\":2474:2577  for(uint i = 0; i < _proposalIds.length; i++){... */\n    tag_58:\n        /* \"ExerciseOne/exercise1.sol\":2494:2506  _proposalIds */\n      dup2\n        /* \"ExerciseOne/exercise1.sol\":2494:2513  _proposalIds.length */\n      mload\n        /* \"ExerciseOne/exercise1.sol\":2490:2491  i */\n      dup2\n        /* \"ExerciseOne/exercise1.sol\":2490:2513  i < _proposalIds.length */\n      lt\n        /* \"ExerciseOne/exercise1.sol\":2474:2577  for(uint i = 0; i < _proposalIds.length; i++){... */\n      iszero\n      tag_59\n      jumpi\n        /* \"ExerciseOne/exercise1.sol\":2533:2544  proposalIds */\n      0x02\n        /* \"ExerciseOne/exercise1.sol\":2550:2562  _proposalIds */\n      dup3\n        /* \"ExerciseOne/exercise1.sol\":2563:2564  i */\n      dup3\n        /* \"ExerciseOne/exercise1.sol\":2550:2565  _proposalIds[i] */\n      dup2\n      mload\n      dup2\n      lt\n      tag_61\n      jumpi\n      tag_62\n      tag_55\n      jump\t// in\n    tag_62:\n    tag_61:\n      0x20\n      mul\n      0x20\n      add\n      add\n      mload\n        /* \"ExerciseOne/exercise1.sol\":2533:2566  proposalIds.push(_proposalIds[i]) */\n      swap1\n      dup1\n      0x01\n      dup2\n      sload\n      add\n      dup1\n      dup3\n      sstore\n      dup1\n      swap2\n      pop\n      pop\n      0x01\n      swap1\n      sub\n      swap1\n      0x00\n      mstore\n      keccak256(0x00, 0x20)\n      add\n      0x00\n      swap1\n      swap2\n      swap1\n      swap2\n      swap1\n      swap2\n      pop\n      sstore\n        /* \"ExerciseOne/exercise1.sol\":2515:2518  i++ */\n      dup1\n      dup1\n      tag_64\n      swap1\n      tag_42\n      jump\t// in\n    tag_64:\n      swap2\n      pop\n      pop\n        /* \"ExerciseOne/exercise1.sol\":2474:2577  for(uint i = 0; i < _proposalIds.length; i++){... */\n      jump(tag_58)\n    tag_59:\n      pop\n        /* \"ExerciseOne/exercise1.sol\":2407:2583  function addProposals(uint[] memory _proposalIds) public {... */\n      pop\n      jump\t// out\n        /* \"ExerciseOne/exercise1.sol\":148:168  address public owner */\n    tag_22:\n      0x00\n      dup1\n      sload\n      swap1\n      0x0100\n      exp\n      swap1\n      div\n      0xffffffffffffffffffffffffffffffffffffffff\n      and\n      dup2\n      jump\t// out\n        /* \"ExerciseOne/exercise1.sol\":1176:1303  function changeOwner(address newOwner) public isOwner {... */\n    tag_28:\n        /* \"ExerciseOne/exercise1.sol\":803:808  owner */\n      0x00\n      dup1\n      sload\n      swap1\n      0x0100\n      exp\n      swap1\n      div\n      0xffffffffffffffffffffffffffffffffffffffff\n      and\n        /* \"ExerciseOne/exercise1.sol\":789:808  msg.sender == owner */\n      0xffffffffffffffffffffffffffffffffffffffff\n      and\n        /* \"ExerciseOne/exercise1.sol\":789:799  msg.sender */\n      caller\n        /* \"ExerciseOne/exercise1.sol\":789:808  msg.sender == owner */\n      0xffffffffffffffffffffffffffffffffffffffff\n      and\n      eq\n        /* \"ExerciseOne/exercise1.sol\":781:832  require(msg.sender == owner, \"Caller is not owner\") */\n      tag_66\n      jumpi\n      mload(0x40)\n      0x08c379a000000000000000000000000000000000000000000000000000000000\n      dup2\n      mstore\n      0x04\n      add\n      tag_67\n      swap1\n      tag_48\n      jump\t// in\n    tag_67:\n      mload(0x40)\n      dup1\n      swap2\n      sub\n      swap1\n      revert\n    tag_66:\n        /* \"ExerciseOne/exercise1.sol\":1261:1269  newOwner */\n      dup1\n        /* \"ExerciseOne/exercise1.sol\":1245:1270  OwnerSet(owner, newOwner) */\n      0xffffffffffffffffffffffffffffffffffffffff\n      and\n        /* \"ExerciseOne/exercise1.sol\":1254:1259  owner */\n      0x00\n      dup1\n      sload\n      swap1\n      0x0100\n      exp\n      swap1\n      div\n      0xffffffffffffffffffffffffffffffffffffffff\n      and\n        /* \"ExerciseOne/exercise1.sol\":1245:1270  OwnerSet(owner, newOwner) */\n      0xffffffffffffffffffffffffffffffffffffffff\n      and\n      0x342827c97908e5e2f71151c08502a66d44b6f758e3ac2f1de95f02eb95f0a735\n      mload(0x40)\n      mload(0x40)\n      dup1\n      swap2\n      sub\n      swap1\n      log3\n        /* \"ExerciseOne/exercise1.sol\":1288:1296  newOwner */\n      dup1\n        /* \"ExerciseOne/exercise1.sol\":1280:1285  owner */\n      0x00\n      dup1\n        /* \"ExerciseOne/exercise1.sol\":1280:1296  owner = newOwner */\n      0x0100\n      exp\n      dup2\n      sload\n      dup2\n      0xffffffffffffffffffffffffffffffffffffffff\n      mul\n      not\n      and\n      swap1\n      dup4\n      0xffffffffffffffffffffffffffffffffffffffff\n      and\n      mul\n      or\n      swap1\n      sstore\n      pop\n        /* \"ExerciseOne/exercise1.sol\":1176:1303  function changeOwner(address newOwner) public isOwner {... */\n      pop\n      jump\t// out\n        /* \"ExerciseOne/exercise1.sol\":2589:3097  function calculateWinner() public view returns(uint proposalId){... */\n    tag_30:\n        /* \"ExerciseOne/exercise1.sol\":2636:2651  uint proposalId */\n      0x00\n        /* \"ExerciseOne/exercise1.sol\":2662:2682  uint winningProposal */\n      dup1\n        /* \"ExerciseOne/exercise1.sol\":2685:2696  proposalIds */\n      0x02\n        /* \"ExerciseOne/exercise1.sol\":2697:2698  0 */\n      0x00\n        /* \"ExerciseOne/exercise1.sol\":2685:2699  proposalIds[0] */\n      dup2\n      sload\n      dup2\n      lt\n      tag_70\n      jumpi\n      tag_71\n      tag_55\n      jump\t// in\n    tag_71:\n    tag_70:\n      swap1\n      0x00\n      mstore\n      keccak256(0x00, 0x20)\n      add\n      sload\n        /* \"ExerciseOne/exercise1.sol\":2662:2699  uint winningProposal = proposalIds[0] */\n      swap1\n      pop\n        /* \"ExerciseOne/exercise1.sol\":2709:2734  uint winningProposalVotes */\n      0x00\n        /* \"ExerciseOne/exercise1.sol\":2749:2755  uint i */\n      dup1\n        /* \"ExerciseOne/exercise1.sol\":2758:2759  0 */\n      0x00\n        /* \"ExerciseOne/exercise1.sol\":2749:2759  uint i = 0 */\n      swap1\n      pop\n        /* \"ExerciseOne/exercise1.sol\":2745:3058  for(uint i = 0; i< proposalIds.length; i++){... */\n    tag_73:\n        /* \"ExerciseOne/exercise1.sol\":2764:2775  proposalIds */\n      0x02\n        /* \"ExerciseOne/exercise1.sol\":2764:2782  proposalIds.length */\n      dup1\n      sload\n      swap1\n      pop\n        /* \"ExerciseOne/exercise1.sol\":2761:2762  i */\n      dup2\n        /* \"ExerciseOne/exercise1.sol\":2761:2782  i< proposalIds.length */\n      lt\n        /* \"ExerciseOne/exercise1.sol\":2745:3058  for(uint i = 0; i< proposalIds.length; i++){... */\n      iszero\n      tag_74\n      jumpi\n        /* \"ExerciseOne/exercise1.sol\":2802:2827  uint currentProposalVotes */\n      0x00\n        /* \"ExerciseOne/exercise1.sol\":2830:2839  proposals */\n      0x01\n        /* \"ExerciseOne/exercise1.sol\":2830:2855  proposals[proposalIds[i]] */\n      0x00\n        /* \"ExerciseOne/exercise1.sol\":2840:2851  proposalIds */\n      0x02\n        /* \"ExerciseOne/exercise1.sol\":2852:2853  i */\n      dup5\n        /* \"ExerciseOne/exercise1.sol\":2840:2854  proposalIds[i] */\n      dup2\n      sload\n      dup2\n      lt\n      tag_76\n      jumpi\n      tag_77\n      tag_55\n      jump\t// in\n    tag_77:\n    tag_76:\n      swap1\n      0x00\n      mstore\n      keccak256(0x00, 0x20)\n      add\n      sload\n        /* \"ExerciseOne/exercise1.sol\":2830:2855  proposals[proposalIds[i]] */\n      dup2\n      mstore\n      0x20\n      add\n      swap1\n      dup2\n      mstore\n      0x20\n      add\n      0x00\n      keccak256\n      sload\n        /* \"ExerciseOne/exercise1.sol\":2802:2855  uint currentProposalVotes = proposals[proposalIds[i]] */\n      swap1\n      pop\n        /* \"ExerciseOne/exercise1.sol\":2896:2916  winningProposalVotes */\n      dup3\n        /* \"ExerciseOne/exercise1.sol\":2873:2893  currentProposalVotes */\n      dup2\n        /* \"ExerciseOne/exercise1.sol\":2873:2916  currentProposalVotes > winningProposalVotes */\n      gt\n        /* \"ExerciseOne/exercise1.sol\":2870:3048  if(currentProposalVotes > winningProposalVotes){... */\n      iszero\n      tag_79\n      jumpi\n        /* \"ExerciseOne/exercise1.sol\":2958:2967  proposals */\n      0x01\n        /* \"ExerciseOne/exercise1.sol\":2958:2983  proposals[proposalIds[i]] */\n      0x00\n        /* \"ExerciseOne/exercise1.sol\":2968:2979  proposalIds */\n      0x02\n        /* \"ExerciseOne/exercise1.sol\":2980:2981  i */\n      dup5\n        /* \"ExerciseOne/exercise1.sol\":2968:2982  proposalIds[i] */\n      dup2\n      sload\n      dup2\n      lt\n      tag_80\n      jumpi\n      tag_81\n      tag_55\n      jump\t// in\n    tag_81:\n    tag_80:\n      swap1\n      0x00\n      mstore\n      keccak256(0x00, 0x20)\n      add\n      sload\n        /* \"ExerciseOne/exercise1.sol\":2958:2983  proposals[proposalIds[i]] */\n      dup2\n      mstore\n      0x20\n      add\n      swap1\n      dup2\n      mstore\n      0x20\n      add\n      0x00\n      keccak256\n      sload\n        /* \"ExerciseOne/exercise1.sol\":2935:2983  winningProposalVotes = proposals[proposalIds[i]] */\n      swap3\n      pop\n        /* \"ExerciseOne/exercise1.sol\":3019:3030  proposalIds */\n      0x02\n        /* \"ExerciseOne/exercise1.sol\":3031:3032  i */\n      dup3\n        /* \"ExerciseOne/exercise1.sol\":3019:3033  proposalIds[i] */\n      dup2\n      sload\n      dup2\n      lt\n      tag_83\n      jumpi\n      tag_84\n      tag_55\n      jump\t// in\n    tag_84:\n    tag_83:\n      swap1\n      0x00\n      mstore\n      keccak256(0x00, 0x20)\n      add\n      sload\n        /* \"ExerciseOne/exercise1.sol\":3001:3033  winningProposal = proposalIds[i] */\n      swap4\n      pop\n        /* \"ExerciseOne/exercise1.sol\":2870:3048  if(currentProposalVotes > winningProposalVotes){... */\n    tag_79:\n        /* \"ExerciseOne/exercise1.sol\":2788:3058  {... */\n      pop\n        /* \"ExerciseOne/exercise1.sol\":2784:2787  i++ */\n      dup1\n      dup1\n      tag_86\n      swap1\n      tag_42\n      jump\t// in\n    tag_86:\n      swap2\n      pop\n      pop\n        /* \"ExerciseOne/exercise1.sol\":2745:3058  for(uint i = 0; i< proposalIds.length; i++){... */\n      jump(tag_73)\n    tag_74:\n      pop\n        /* \"ExerciseOne/exercise1.sol\":3075:3090  winningProposal */\n      dup2\n        /* \"ExerciseOne/exercise1.sol\":3068:3090  return winningProposal */\n      swap3\n      pop\n      pop\n      pop\n        /* \"ExerciseOne/exercise1.sol\":2589:3097  function calculateWinner() public view returns(uint proposalId){... */\n      swap1\n      jump\t// out\n        /* \"#utility.yul\":7:82   */\n    tag_87:\n        /* \"#utility.yul\":40:46   */\n      0x00\n        /* \"#utility.yul\":73:75   */\n      0x40\n        /* \"#utility.yul\":67:76   */\n      mload\n        /* \"#utility.yul\":57:76   */\n      swap1\n      pop\n        /* \"#utility.yul\":7:82   */\n      swap1\n      jump\t// out\n        /* \"#utility.yul\":88:205   */\n    tag_88:\n        /* \"#utility.yul\":197:198   */\n      0x00\n        /* \"#utility.yul\":194:195   */\n      dup1\n        /* \"#utility.yul\":187:199   */\n      revert\n        /* \"#utility.yul\":211:328   */\n    tag_89:\n        /* \"#utility.yul\":320:321   */\n      0x00\n        /* \"#utility.yul\":317:318   */\n      dup1\n        /* \"#utility.yul\":310:322   */\n      revert\n        /* \"#utility.yul\":334:411   */\n    tag_90:\n        /* \"#utility.yul\":371:378   */\n      0x00\n        /* \"#utility.yul\":400:405   */\n      dup2\n        /* \"#utility.yul\":389:405   */\n      swap1\n      pop\n        /* \"#utility.yul\":334:411   */\n      swap2\n      swap1\n      pop\n      jump\t// out\n        /* \"#utility.yul\":417:539   */\n    tag_91:\n        /* \"#utility.yul\":490:514   */\n      tag_125\n        /* \"#utility.yul\":508:513   */\n      dup2\n        /* \"#utility.yul\":490:514   */\n      tag_90\n      jump\t// in\n    tag_125:\n        /* \"#utility.yul\":483:488   */\n      dup2\n        /* \"#utility.yul\":480:515   */\n      eq\n        /* \"#utility.yul\":470:533   */\n      tag_126\n      jumpi\n        /* \"#utility.yul\":529:530   */\n      0x00\n        /* \"#utility.yul\":526:527   */\n      dup1\n        /* \"#utility.yul\":519:531   */\n      revert\n        /* \"#utility.yul\":470:533   */\n    tag_126:\n        /* \"#utility.yul\":417:539   */\n      pop\n      jump\t// out\n        /* \"#utility.yul\":545:684   */\n    tag_92:\n        /* \"#utility.yul\":591:596   */\n      0x00\n        /* \"#utility.yul\":629:635   */\n      dup2\n        /* \"#utility.yul\":616:636   */\n      calldataload\n        /* \"#utility.yul\":607:636   */\n      swap1\n      pop\n        /* \"#utility.yul\":645:678   */\n      tag_128\n        /* \"#utility.yul\":672:677   */\n      dup2\n        /* \"#utility.yul\":645:678   */\n      tag_91\n      jump\t// in\n    tag_128:\n        /* \"#utility.yul\":545:684   */\n      swap3\n      swap2\n      pop\n      pop\n      jump\t// out\n        /* \"#utility.yul\":690:1019   */\n    tag_11:\n        /* \"#utility.yul\":749:755   */\n      0x00\n        /* \"#utility.yul\":798:800   */\n      0x20\n        /* \"#utility.yul\":786:795   */\n      dup3\n        /* \"#utility.yul\":777:784   */\n      dup5\n        /* \"#utility.yul\":773:796   */\n      sub\n        /* \"#utility.yul\":769:801   */\n      slt\n        /* \"#utility.yul\":766:885   */\n      iszero\n      tag_130\n      jumpi\n        /* \"#utility.yul\":804:883   */\n      tag_131\n      tag_88\n      jump\t// in\n    tag_131:\n        /* \"#utility.yul\":766:885   */\n    tag_130:\n        /* \"#utility.yul\":924:925   */\n      0x00\n        /* \"#utility.yul\":949:1002   */\n      tag_132\n        /* \"#utility.yul\":994:1001   */\n      dup5\n        /* \"#utility.yul\":985:991   */\n      dup3\n        /* \"#utility.yul\":974:983   */\n      dup6\n        /* \"#utility.yul\":970:992   */\n      add\n        /* \"#utility.yul\":949:1002   */\n      tag_92\n      jump\t// in\n    tag_132:\n        /* \"#utility.yul\":939:1002   */\n      swap2\n      pop\n        /* \"#utility.yul\":895:1012   */\n      pop\n        /* \"#utility.yul\":690:1019   */\n      swap3\n      swap2\n      pop\n      pop\n      jump\t// out\n        /* \"#utility.yul\":1025:1142   */\n    tag_93:\n        /* \"#utility.yul\":1134:1135   */\n      0x00\n        /* \"#utility.yul\":1131:1132   */\n      dup1\n        /* \"#utility.yul\":1124:1136   */\n      revert\n        /* \"#utility.yul\":1148:1250   */\n    tag_94:\n        /* \"#utility.yul\":1189:1195   */\n      0x00\n        /* \"#utility.yul\":1240:1242   */\n      0x1f\n        /* \"#utility.yul\":1236:1243   */\n      not\n        /* \"#utility.yul\":1231:1233   */\n      0x1f\n        /* \"#utility.yul\":1224:1229   */\n      dup4\n        /* \"#utility.yul\":1220:1234   */\n      add\n        /* \"#utility.yul\":1216:1244   */\n      and\n        /* \"#utility.yul\":1206:1244   */\n      swap1\n      pop\n        /* \"#utility.yul\":1148:1250   */\n      swap2\n      swap1\n      pop\n      jump\t// out\n        /* \"#utility.yul\":1256:1436   */\n    tag_95:\n        /* \"#utility.yul\":1304:1381   */\n      0x4e487b7100000000000000000000000000000000000000000000000000000000\n        /* \"#utility.yul\":1301:1302   */\n      0x00\n        /* \"#utility.yul\":1294:1382   */\n      mstore\n        /* \"#utility.yul\":1401:1405   */\n      0x41\n        /* \"#utility.yul\":1398:1399   */\n      0x04\n        /* \"#utility.yul\":1391:1406   */\n      mstore\n        /* \"#utility.yul\":1425:1429   */\n      0x24\n        /* \"#utility.yul\":1422:1423   */\n      0x00\n        /* \"#utility.yul\":1415:1430   */\n      revert\n        /* \"#utility.yul\":1442:1723   */\n    tag_96:\n        /* \"#utility.yul\":1525:1552   */\n      tag_137\n        /* \"#utility.yul\":1547:1551   */\n      dup3\n        /* \"#utility.yul\":1525:1552   */\n      tag_94\n      jump\t// in\n    tag_137:\n        /* \"#utility.yul\":1517:1523   */\n      dup2\n        /* \"#utility.yul\":1513:1553   */\n      add\n        /* \"#utility.yul\":1655:1661   */\n      dup2\n        /* \"#utility.yul\":1643:1653   */\n      dup2\n        /* \"#utility.yul\":1640:1662   */\n      lt\n        /* \"#utility.yul\":1619:1637   */\n      0xffffffffffffffff\n        /* \"#utility.yul\":1607:1617   */\n      dup3\n        /* \"#utility.yul\":1604:1638   */\n      gt\n        /* \"#utility.yul\":1601:1663   */\n      or\n        /* \"#utility.yul\":1598:1686   */\n      iszero\n      tag_138\n      jumpi\n        /* \"#utility.yul\":1666:1684   */\n      tag_139\n      tag_95\n      jump\t// in\n    tag_139:\n        /* \"#utility.yul\":1598:1686   */\n    tag_138:\n        /* \"#utility.yul\":1706:1716   */\n      dup1\n        /* \"#utility.yul\":1702:1704   */\n      0x40\n        /* \"#utility.yul\":1695:1717   */\n      mstore\n        /* \"#utility.yul\":1485:1723   */\n      pop\n        /* \"#utility.yul\":1442:1723   */\n      pop\n      pop\n      jump\t// out\n        /* \"#utility.yul\":1729:1858   */\n    tag_97:\n        /* \"#utility.yul\":1763:1769   */\n      0x00\n        /* \"#utility.yul\":1790:1810   */\n      tag_141\n      tag_87\n      jump\t// in\n    tag_141:\n        /* \"#utility.yul\":1780:1810   */\n      swap1\n      pop\n        /* \"#utility.yul\":1819:1852   */\n      tag_142\n        /* \"#utility.yul\":1847:1851   */\n      dup3\n        /* \"#utility.yul\":1839:1845   */\n      dup3\n        /* \"#utility.yul\":1819:1852   */\n      tag_96\n      jump\t// in\n    tag_142:\n        /* \"#utility.yul\":1729:1858   */\n      swap2\n      swap1\n      pop\n      jump\t// out\n        /* \"#utility.yul\":1864:2175   */\n    tag_98:\n        /* \"#utility.yul\":1941:1945   */\n      0x00\n        /* \"#utility.yul\":2031:2049   */\n      0xffffffffffffffff\n        /* \"#utility.yul\":2023:2029   */\n      dup3\n        /* \"#utility.yul\":2020:2050   */\n      gt\n        /* \"#utility.yul\":2017:2073   */\n      iszero\n      tag_144\n      jumpi\n        /* \"#utility.yul\":2053:2071   */\n      tag_145\n      tag_95\n      jump\t// in\n    tag_145:\n        /* \"#utility.yul\":2017:2073   */\n    tag_144:\n        /* \"#utility.yul\":2103:2107   */\n      0x20\n        /* \"#utility.yul\":2095:2101   */\n      dup3\n        /* \"#utility.yul\":2091:2108   */\n      mul\n        /* \"#utility.yul\":2083:2108   */\n      swap1\n      pop\n        /* \"#utility.yul\":2163:2167   */\n      0x20\n        /* \"#utility.yul\":2157:2161   */\n      dup2\n        /* \"#utility.yul\":2153:2168   */\n      add\n        /* \"#utility.yul\":2145:2168   */\n      swap1\n      pop\n        /* \"#utility.yul\":1864:2175   */\n      swap2\n      swap1\n      pop\n      jump\t// out\n        /* \"#utility.yul\":2181:2298   */\n    tag_99:\n        /* \"#utility.yul\":2290:2291   */\n      0x00\n        /* \"#utility.yul\":2287:2288   */\n      dup1\n        /* \"#utility.yul\":2280:2292   */\n      revert\n        /* \"#utility.yul\":2304:2430   */\n    tag_100:\n        /* \"#utility.yul\":2341:2348   */\n      0x00\n        /* \"#utility.yul\":2381:2423   */\n      0xffffffffffffffffffffffffffffffffffffffff\n        /* \"#utility.yul\":2374:2379   */\n      dup3\n        /* \"#utility.yul\":2370:2424   */\n      and\n        /* \"#utility.yul\":2359:2424   */\n      swap1\n      pop\n        /* \"#utility.yul\":2304:2430   */\n      swap2\n      swap1\n      pop\n      jump\t// out\n        /* \"#utility.yul\":2436:2532   */\n    tag_101:\n        /* \"#utility.yul\":2473:2480   */\n      0x00\n        /* \"#utility.yul\":2502:2526   */\n      tag_149\n        /* \"#utility.yul\":2520:2525   */\n      dup3\n        /* \"#utility.yul\":2502:2526   */\n      tag_100\n      jump\t// in\n    tag_149:\n        /* \"#utility.yul\":2491:2526   */\n      swap1\n      pop\n        /* \"#utility.yul\":2436:2532   */\n      swap2\n      swap1\n      pop\n      jump\t// out\n        /* \"#utility.yul\":2538:2660   */\n    tag_102:\n        /* \"#utility.yul\":2611:2635   */\n      tag_151\n        /* \"#utility.yul\":2629:2634   */\n      dup2\n        /* \"#utility.yul\":2611:2635   */\n      tag_101\n      jump\t// in\n    tag_151:\n        /* \"#utility.yul\":2604:2609   */\n      dup2\n        /* \"#utility.yul\":2601:2636   */\n      eq\n        /* \"#utility.yul\":2591:2654   */\n      tag_152\n      jumpi\n        /* \"#utility.yul\":2650:2651   */\n      0x00\n        /* \"#utility.yul\":2647:2648   */\n      dup1\n        /* \"#utility.yul\":2640:2652   */\n      revert\n        /* \"#utility.yul\":2591:2654   */\n    tag_152:\n        /* \"#utility.yul\":2538:2660   */\n      pop\n      jump\t// out\n        /* \"#utility.yul\":2666:2805   */\n    tag_103:\n        /* \"#utility.yul\":2712:2717   */\n      0x00\n        /* \"#utility.yul\":2750:2756   */\n      dup2\n        /* \"#utility.yul\":2737:2757   */\n      calldataload\n        /* \"#utility.yul\":2728:2757   */\n      swap1\n      pop\n        /* \"#utility.yul\":2766:2799   */\n      tag_154\n        /* \"#utility.yul\":2793:2798   */\n      dup2\n        /* \"#utility.yul\":2766:2799   */\n      tag_102\n      jump\t// in\n    tag_154:\n        /* \"#utility.yul\":2666:2805   */\n      swap3\n      swap2\n      pop\n      pop\n      jump\t// out\n        /* \"#utility.yul\":2828:3538   */\n    tag_104:\n        /* \"#utility.yul\":2924:2929   */\n      0x00\n        /* \"#utility.yul\":2949:3030   */\n      tag_156\n        /* \"#utility.yul\":2965:3029   */\n      tag_157\n        /* \"#utility.yul\":3022:3028   */\n      dup5\n        /* \"#utility.yul\":2965:3029   */\n      tag_98\n      jump\t// in\n    tag_157:\n        /* \"#utility.yul\":2949:3030   */\n      tag_97\n      jump\t// in\n    tag_156:\n        /* \"#utility.yul\":2940:3030   */\n      swap1\n      pop\n        /* \"#utility.yul\":3050:3055   */\n      dup1\n        /* \"#utility.yul\":3079:3085   */\n      dup4\n        /* \"#utility.yul\":3072:3077   */\n      dup3\n        /* \"#utility.yul\":3065:3086   */\n      mstore\n        /* \"#utility.yul\":3113:3117   */\n      0x20\n        /* \"#utility.yul\":3106:3111   */\n      dup3\n        /* \"#utility.yul\":3102:3118   */\n      add\n        /* \"#utility.yul\":3095:3118   */\n      swap1\n      pop\n        /* \"#utility.yul\":3166:3170   */\n      0x20\n        /* \"#utility.yul\":3158:3164   */\n      dup5\n        /* \"#utility.yul\":3154:3171   */\n      mul\n        /* \"#utility.yul\":3146:3152   */\n      dup4\n        /* \"#utility.yul\":3142:3172   */\n      add\n        /* \"#utility.yul\":3195:3198   */\n      dup6\n        /* \"#utility.yul\":3187:3193   */\n      dup2\n        /* \"#utility.yul\":3184:3199   */\n      gt\n        /* \"#utility.yul\":3181:3303   */\n      iszero\n      tag_158\n      jumpi\n        /* \"#utility.yul\":3214:3293   */\n      tag_159\n      tag_99\n      jump\t// in\n    tag_159:\n        /* \"#utility.yul\":3181:3303   */\n    tag_158:\n        /* \"#utility.yul\":3329:3335   */\n      dup4\n        /* \"#utility.yul\":3312:3532   */\n    tag_160:\n        /* \"#utility.yul\":3346:3352   */\n      dup2\n        /* \"#utility.yul\":3341:3344   */\n      dup2\n        /* \"#utility.yul\":3338:3353   */\n      lt\n        /* \"#utility.yul\":3312:3532   */\n      iszero\n      tag_162\n      jumpi\n        /* \"#utility.yul\":3421:3424   */\n      dup1\n        /* \"#utility.yul\":3450:3487   */\n      tag_163\n        /* \"#utility.yul\":3483:3486   */\n      dup9\n        /* \"#utility.yul\":3471:3481   */\n      dup3\n        /* \"#utility.yul\":3450:3487   */\n      tag_103\n      jump\t// in\n    tag_163:\n        /* \"#utility.yul\":3445:3448   */\n      dup5\n        /* \"#utility.yul\":3438:3488   */\n      mstore\n        /* \"#utility.yul\":3517:3521   */\n      0x20\n        /* \"#utility.yul\":3512:3515   */\n      dup5\n        /* \"#utility.yul\":3508:3522   */\n      add\n        /* \"#utility.yul\":3501:3522   */\n      swap4\n      pop\n        /* \"#utility.yul\":3388:3532   */\n      pop\n        /* \"#utility.yul\":3372:3376   */\n      0x20\n        /* \"#utility.yul\":3367:3370   */\n      dup2\n        /* \"#utility.yul\":3363:3377   */\n      add\n        /* \"#utility.yul\":3356:3377   */\n      swap1\n      pop\n        /* \"#utility.yul\":3312:3532   */\n      jump(tag_160)\n    tag_162:\n        /* \"#utility.yul\":3316:3337   */\n      pop\n        /* \"#utility.yul\":2930:3538   */\n      pop\n      pop\n        /* \"#utility.yul\":2828:3538   */\n      swap4\n      swap3\n      pop\n      pop\n      pop\n      jump\t// out\n        /* \"#utility.yul\":3561:3931   */\n    tag_105:\n        /* \"#utility.yul\":3632:3637   */\n      0x00\n        /* \"#utility.yul\":3681:3684   */\n      dup3\n        /* \"#utility.yul\":3674:3678   */\n      0x1f\n        /* \"#utility.yul\":3666:3672   */\n      dup4\n        /* \"#utility.yul\":3662:3679   */\n      add\n        /* \"#utility.yul\":3658:3685   */\n      slt\n        /* \"#utility.yul\":3648:3770   */\n      tag_165\n      jumpi\n        /* \"#utility.yul\":3689:3768   */\n      tag_166\n      tag_93\n      jump\t// in\n    tag_166:\n        /* \"#utility.yul\":3648:3770   */\n    tag_165:\n        /* \"#utility.yul\":3806:3812   */\n      dup2\n        /* \"#utility.yul\":3793:3813   */\n      calldataload\n        /* \"#utility.yul\":3831:3925   */\n      tag_167\n        /* \"#utility.yul\":3921:3924   */\n      dup5\n        /* \"#utility.yul\":3913:3919   */\n      dup3\n        /* \"#utility.yul\":3906:3910   */\n      0x20\n        /* \"#utility.yul\":3898:3904   */\n      dup7\n        /* \"#utility.yul\":3894:3911   */\n      add\n        /* \"#utility.yul\":3831:3925   */\n      tag_104\n      jump\t// in\n    tag_167:\n        /* \"#utility.yul\":3822:3925   */\n      swap2\n      pop\n        /* \"#utility.yul\":3638:3931   */\n      pop\n        /* \"#utility.yul\":3561:3931   */\n      swap3\n      swap2\n      pop\n      pop\n      jump\t// out\n        /* \"#utility.yul\":3937:4476   */\n    tag_15:\n        /* \"#utility.yul\":4021:4027   */\n      0x00\n        /* \"#utility.yul\":4070:4072   */\n      0x20\n        /* \"#utility.yul\":4058:4067   */\n      dup3\n        /* \"#utility.yul\":4049:4056   */\n      dup5\n        /* \"#utility.yul\":4045:4068   */\n      sub\n        /* \"#utility.yul\":4041:4073   */\n      slt\n        /* \"#utility.yul\":4038:4157   */\n      iszero\n      tag_169\n      jumpi\n        /* \"#utility.yul\":4076:4155   */\n      tag_170\n      tag_88\n      jump\t// in\n    tag_170:\n        /* \"#utility.yul\":4038:4157   */\n    tag_169:\n        /* \"#utility.yul\":4224:4225   */\n      0x00\n        /* \"#utility.yul\":4213:4222   */\n      dup3\n        /* \"#utility.yul\":4209:4226   */\n      add\n        /* \"#utility.yul\":4196:4227   */\n      calldataload\n        /* \"#utility.yul\":4254:4272   */\n      0xffffffffffffffff\n        /* \"#utility.yul\":4246:4252   */\n      dup2\n        /* \"#utility.yul\":4243:4273   */\n      gt\n        /* \"#utility.yul\":4240:4357   */\n      iszero\n      tag_171\n      jumpi\n        /* \"#utility.yul\":4276:4355   */\n      tag_172\n      tag_89\n      jump\t// in\n    tag_172:\n        /* \"#utility.yul\":4240:4357   */\n    tag_171:\n        /* \"#utility.yul\":4381:4459   */\n      tag_173\n        /* \"#utility.yul\":4451:4458   */\n      dup5\n        /* \"#utility.yul\":4442:4448   */\n      dup3\n        /* \"#utility.yul\":4431:4440   */\n      dup6\n        /* \"#utility.yul\":4427:4449   */\n      add\n        /* \"#utility.yul\":4381:4459   */\n      tag_105\n      jump\t// in\n    tag_173:\n        /* \"#utility.yul\":4371:4459   */\n      swap2\n      pop\n        /* \"#utility.yul\":4167:4469   */\n      pop\n        /* \"#utility.yul\":3937:4476   */\n      swap3\n      swap2\n      pop\n      pop\n      jump\t// out\n        /* \"#utility.yul\":4482:4793   */\n    tag_106:\n        /* \"#utility.yul\":4559:4563   */\n      0x00\n        /* \"#utility.yul\":4649:4667   */\n      0xffffffffffffffff\n        /* \"#utility.yul\":4641:4647   */\n      dup3\n        /* \"#utility.yul\":4638:4668   */\n      gt\n        /* \"#utility.yul\":4635:4691   */\n      iszero\n      tag_175\n      jumpi\n        /* \"#utility.yul\":4671:4689   */\n      tag_176\n      tag_95\n      jump\t// in\n    tag_176:\n        /* \"#utility.yul\":4635:4691   */\n    tag_175:\n        /* \"#utility.yul\":4721:4725   */\n      0x20\n        /* \"#utility.yul\":4713:4719   */\n      dup3\n        /* \"#utility.yul\":4709:4726   */\n      mul\n        /* \"#utility.yul\":4701:4726   */\n      swap1\n      pop\n        /* \"#utility.yul\":4781:4785   */\n      0x20\n        /* \"#utility.yul\":4775:4779   */\n      dup2\n        /* \"#utility.yul\":4771:4786   */\n      add\n        /* \"#utility.yul\":4763:4786   */\n      swap1\n      pop\n        /* \"#utility.yul\":4482:4793   */\n      swap2\n      swap1\n      pop\n      jump\t// out\n        /* \"#utility.yul\":4816:5526   */\n    tag_107:\n        /* \"#utility.yul\":4912:4917   */\n      0x00\n        /* \"#utility.yul\":4937:5018   */\n      tag_178\n        /* \"#utility.yul\":4953:5017   */\n      tag_179\n        /* \"#utility.yul\":5010:5016   */\n      dup5\n        /* \"#utility.yul\":4953:5017   */\n      tag_106\n      jump\t// in\n    tag_179:\n        /* \"#utility.yul\":4937:5018   */\n      tag_97\n      jump\t// in\n    tag_178:\n        /* \"#utility.yul\":4928:5018   */\n      swap1\n      pop\n        /* \"#utility.yul\":5038:5043   */\n      dup1\n        /* \"#utility.yul\":5067:5073   */\n      dup4\n        /* \"#utility.yul\":5060:5065   */\n      dup3\n        /* \"#utility.yul\":5053:5074   */\n      mstore\n        /* \"#utility.yul\":5101:5105   */\n      0x20\n        /* \"#utility.yul\":5094:5099   */\n      dup3\n        /* \"#utility.yul\":5090:5106   */\n      add\n        /* \"#utility.yul\":5083:5106   */\n      swap1\n      pop\n        /* \"#utility.yul\":5154:5158   */\n      0x20\n        /* \"#utility.yul\":5146:5152   */\n      dup5\n        /* \"#utility.yul\":5142:5159   */\n      mul\n        /* \"#utility.yul\":5134:5140   */\n      dup4\n        /* \"#utility.yul\":5130:5160   */\n      add\n        /* \"#utility.yul\":5183:5186   */\n      dup6\n        /* \"#utility.yul\":5175:5181   */\n      dup2\n        /* \"#utility.yul\":5172:5187   */\n      gt\n        /* \"#utility.yul\":5169:5291   */\n      iszero\n      tag_180\n      jumpi\n        /* \"#utility.yul\":5202:5281   */\n      tag_181\n      tag_99\n      jump\t// in\n    tag_181:\n        /* \"#utility.yul\":5169:5291   */\n    tag_180:\n        /* \"#utility.yul\":5317:5323   */\n      dup4\n        /* \"#utility.yul\":5300:5520   */\n    tag_182:\n        /* \"#utility.yul\":5334:5340   */\n      dup2\n        /* \"#utility.yul\":5329:5332   */\n      dup2\n        /* \"#utility.yul\":5326:5341   */\n      lt\n        /* \"#utility.yul\":5300:5520   */\n      iszero\n      tag_184\n      jumpi\n        /* \"#utility.yul\":5409:5412   */\n      dup1\n        /* \"#utility.yul\":5438:5475   */\n      tag_185\n        /* \"#utility.yul\":5471:5474   */\n      dup9\n        /* \"#utility.yul\":5459:5469   */\n      dup3\n        /* \"#utility.yul\":5438:5475   */\n      tag_92\n      jump\t// in\n    tag_185:\n        /* \"#utility.yul\":5433:5436   */\n      dup5\n        /* \"#utility.yul\":5426:5476   */\n      mstore\n        /* \"#utility.yul\":5505:5509   */\n      0x20\n        /* \"#utility.yul\":5500:5503   */\n      dup5\n        /* \"#utility.yul\":5496:5510   */\n      add\n        /* \"#utility.yul\":5489:5510   */\n      swap4\n      pop\n        /* \"#utility.yul\":5376:5520   */\n      pop\n        /* \"#utility.yul\":5360:5364   */\n      0x20\n        /* \"#utility.yul\":5355:5358   */\n      dup2\n        /* \"#utility.yul\":5351:5365   */\n      add\n        /* \"#utility.yul\":5344:5365   */\n      swap1\n      pop\n        /* \"#utility.yul\":5300:5520   */\n      jump(tag_182)\n    tag_184:\n        /* \"#utility.yul\":5304:5325   */\n      pop\n        /* \"#utility.yul\":4918:5526   */\n      pop\n      pop\n        /* \"#utility.yul\":4816:5526   */\n      swap4\n      swap3\n      pop\n      pop\n      pop\n      jump\t// out\n        /* \"#utility.yul\":5549:5919   */\n    tag_108:\n        /* \"#utility.yul\":5620:5625   */\n      0x00\n        /* \"#utility.yul\":5669:5672   */\n      dup3\n        /* \"#utility.yul\":5662:5666   */\n      0x1f\n        /* \"#utility.yul\":5654:5660   */\n      dup4\n        /* \"#utility.yul\":5650:5667   */\n      add\n        /* \"#utility.yul\":5646:5673   */\n      slt\n        /* \"#utility.yul\":5636:5758   */\n      tag_187\n      jumpi\n        /* \"#utility.yul\":5677:5756   */\n      tag_188\n      tag_93\n      jump\t// in\n    tag_188:\n        /* \"#utility.yul\":5636:5758   */\n    tag_187:\n        /* \"#utility.yul\":5794:5800   */\n      dup2\n        /* \"#utility.yul\":5781:5801   */\n      calldataload\n        /* \"#utility.yul\":5819:5913   */\n      tag_189\n        /* \"#utility.yul\":5909:5912   */\n      dup5\n        /* \"#utility.yul\":5901:5907   */\n      dup3\n        /* \"#utility.yul\":5894:5898   */\n      0x20\n        /* \"#utility.yul\":5886:5892   */\n      dup7\n        /* \"#utility.yul\":5882:5899   */\n      add\n        /* \"#utility.yul\":5819:5913   */\n      tag_107\n      jump\t// in\n    tag_189:\n        /* \"#utility.yul\":5810:5913   */\n      swap2\n      pop\n        /* \"#utility.yul\":5626:5919   */\n      pop\n        /* \"#utility.yul\":5549:5919   */\n      swap3\n      swap2\n      pop\n      pop\n      jump\t// out\n        /* \"#utility.yul\":5925:6464   */\n    tag_19:\n        /* \"#utility.yul\":6009:6015   */\n      0x00\n        /* \"#utility.yul\":6058:6060   */\n      0x20\n        /* \"#utility.yul\":6046:6055   */\n      dup3\n        /* \"#utility.yul\":6037:6044   */\n      dup5\n        /* \"#utility.yul\":6033:6056   */\n      sub\n        /* \"#utility.yul\":6029:6061   */\n      slt\n        /* \"#utility.yul\":6026:6145   */\n      iszero\n      tag_191\n      jumpi\n        /* \"#utility.yul\":6064:6143   */\n      tag_192\n      tag_88\n      jump\t// in\n    tag_192:\n        /* \"#utility.yul\":6026:6145   */\n    tag_191:\n        /* \"#utility.yul\":6212:6213   */\n      0x00\n        /* \"#utility.yul\":6201:6210   */\n      dup3\n        /* \"#utility.yul\":6197:6214   */\n      add\n        /* \"#utility.yul\":6184:6215   */\n      calldataload\n        /* \"#utility.yul\":6242:6260   */\n      0xffffffffffffffff\n        /* \"#utility.yul\":6234:6240   */\n      dup2\n        /* \"#utility.yul\":6231:6261   */\n      gt\n        /* \"#utility.yul\":6228:6345   */\n      iszero\n      tag_193\n      jumpi\n        /* \"#utility.yul\":6264:6343   */\n      tag_194\n      tag_89\n      jump\t// in\n    tag_194:\n        /* \"#utility.yul\":6228:6345   */\n    tag_193:\n        /* \"#utility.yul\":6369:6447   */\n      tag_195\n        /* \"#utility.yul\":6439:6446   */\n      dup5\n        /* \"#utility.yul\":6430:6436   */\n      dup3\n        /* \"#utility.yul\":6419:6428   */\n      dup6\n        /* \"#utility.yul\":6415:6437   */\n      add\n        /* \"#utility.yul\":6369:6447   */\n      tag_108\n      jump\t// in\n    tag_195:\n        /* \"#utility.yul\":6359:6447   */\n      swap2\n      pop\n        /* \"#utility.yul\":6155:6457   */\n      pop\n        /* \"#utility.yul\":5925:6464   */\n      swap3\n      swap2\n      pop\n      pop\n      jump\t// out\n        /* \"#utility.yul\":6470:6588   */\n    tag_109:\n        /* \"#utility.yul\":6557:6581   */\n      tag_197\n        /* \"#utility.yul\":6575:6580   */\n      dup2\n        /* \"#utility.yul\":6557:6581   */\n      tag_101\n      jump\t// in\n    tag_197:\n        /* \"#utility.yul\":6552:6555   */\n      dup3\n        /* \"#utility.yul\":6545:6582   */\n      mstore\n        /* \"#utility.yul\":6470:6588   */\n      pop\n      pop\n      jump\t// out\n        /* \"#utility.yul\":6594:6816   */\n    tag_24:\n        /* \"#utility.yul\":6687:6691   */\n      0x00\n        /* \"#utility.yul\":6725:6727   */\n      0x20\n        /* \"#utility.yul\":6714:6723   */\n      dup3\n        /* \"#utility.yul\":6710:6728   */\n      add\n        /* \"#utility.yul\":6702:6728   */\n      swap1\n      pop\n        /* \"#utility.yul\":6738:6809   */\n      tag_199\n        /* \"#utility.yul\":6806:6807   */\n      0x00\n        /* \"#utility.yul\":6795:6804   */\n      dup4\n        /* \"#utility.yul\":6791:6808   */\n      add\n        /* \"#utility.yul\":6782:6788   */\n      dup5\n        /* \"#utility.yul\":6738:6809   */\n      tag_109\n      jump\t// in\n    tag_199:\n        /* \"#utility.yul\":6594:6816   */\n      swap3\n      swap2\n      pop\n      pop\n      jump\t// out\n        /* \"#utility.yul\":6822:7151   */\n    tag_27:\n        /* \"#utility.yul\":6881:6887   */\n      0x00\n        /* \"#utility.yul\":6930:6932   */\n      0x20\n        /* \"#utility.yul\":6918:6927   */\n      dup3\n        /* \"#utility.yul\":6909:6916   */\n      dup5\n        /* \"#utility.yul\":6905:6928   */\n      sub\n        /* \"#utility.yul\":6901:6933   */\n      slt\n        /* \"#utility.yul\":6898:7017   */\n      iszero\n      tag_201\n      jumpi\n        /* \"#utility.yul\":6936:7015   */\n      tag_202\n      tag_88\n      jump\t// in\n    tag_202:\n        /* \"#utility.yul\":6898:7017   */\n    tag_201:\n        /* \"#utility.yul\":7056:7057   */\n      0x00\n        /* \"#utility.yul\":7081:7134   */\n      tag_203\n        /* \"#utility.yul\":7126:7133   */\n      dup5\n        /* \"#utility.yul\":7117:7123   */\n      dup3\n        /* \"#utility.yul\":7106:7115   */\n      dup6\n        /* \"#utility.yul\":7102:7124   */\n      add\n        /* \"#utility.yul\":7081:7134   */\n      tag_103\n      jump\t// in\n    tag_203:\n        /* \"#utility.yul\":7071:7134   */\n      swap2\n      pop\n        /* \"#utility.yul\":7027:7144   */\n      pop\n        /* \"#utility.yul\":6822:7151   */\n      swap3\n      swap2\n      pop\n      pop\n      jump\t// out\n        /* \"#utility.yul\":7157:7275   */\n    tag_110:\n        /* \"#utility.yul\":7244:7268   */\n      tag_205\n        /* \"#utility.yul\":7262:7267   */\n      dup2\n        /* \"#utility.yul\":7244:7268   */\n      tag_90\n      jump\t// in\n    tag_205:\n        /* \"#utility.yul\":7239:7242   */\n      dup3\n        /* \"#utility.yul\":7232:7269   */\n      mstore\n        /* \"#utility.yul\":7157:7275   */\n      pop\n      pop\n      jump\t// out\n        /* \"#utility.yul\":7281:7503   */\n    tag_32:\n        /* \"#utility.yul\":7374:7378   */\n      0x00\n        /* \"#utility.yul\":7412:7414   */\n      0x20\n        /* \"#utility.yul\":7401:7410   */\n      dup3\n        /* \"#utility.yul\":7397:7415   */\n      add\n        /* \"#utility.yul\":7389:7415   */\n      swap1\n      pop\n        /* \"#utility.yul\":7425:7496   */\n      tag_207\n        /* \"#utility.yul\":7493:7494   */\n      0x00\n        /* \"#utility.yul\":7482:7491   */\n      dup4\n        /* \"#utility.yul\":7478:7495   */\n      add\n        /* \"#utility.yul\":7469:7475   */\n      dup5\n        /* \"#utility.yul\":7425:7496   */\n      tag_110\n      jump\t// in\n    tag_207:\n        /* \"#utility.yul\":7281:7503   */\n      swap3\n      swap2\n      pop\n      pop\n      jump\t// out\n        /* \"#utility.yul\":7509:7678   */\n    tag_111:\n        /* \"#utility.yul\":7593:7604   */\n      0x00\n        /* \"#utility.yul\":7627:7633   */\n      dup3\n        /* \"#utility.yul\":7622:7625   */\n      dup3\n        /* \"#utility.yul\":7615:7634   */\n      mstore\n        /* \"#utility.yul\":7667:7671   */\n      0x20\n        /* \"#utility.yul\":7662:7665   */\n      dup3\n        /* \"#utility.yul\":7658:7672   */\n      add\n        /* \"#utility.yul\":7643:7672   */\n      swap1\n      pop\n        /* \"#utility.yul\":7509:7678   */\n      swap3\n      swap2\n      pop\n      pop\n      jump\t// out\n        /* \"#utility.yul\":7684:7851   */\n    tag_112:\n        /* \"#utility.yul\":7824:7843   */\n      0x596f75206d6179206e6f7420766f746521000000000000000000000000000000\n        /* \"#utility.yul\":7820:7821   */\n      0x00\n        /* \"#utility.yul\":7812:7818   */\n      dup3\n        /* \"#utility.yul\":7808:7822   */\n      add\n        /* \"#utility.yul\":7801:7844   */\n      mstore\n        /* \"#utility.yul\":7684:7851   */\n      pop\n      jump\t// out\n        /* \"#utility.yul\":7857:8223   */\n    tag_113:\n        /* \"#utility.yul\":7999:8002   */\n      0x00\n        /* \"#utility.yul\":8020:8087   */\n      tag_211\n        /* \"#utility.yul\":8084:8086   */\n      0x11\n        /* \"#utility.yul\":8079:8082   */\n      dup4\n        /* \"#utility.yul\":8020:8087   */\n      tag_111\n      jump\t// in\n    tag_211:\n        /* \"#utility.yul\":8013:8087   */\n      swap2\n      pop\n        /* \"#utility.yul\":8096:8189   */\n      tag_212\n        /* \"#utility.yul\":8185:8188   */\n      dup3\n        /* \"#utility.yul\":8096:8189   */\n      tag_112\n      jump\t// in\n    tag_212:\n        /* \"#utility.yul\":8214:8216   */\n      0x20\n        /* \"#utility.yul\":8209:8212   */\n      dup3\n        /* \"#utility.yul\":8205:8217   */\n      add\n        /* \"#utility.yul\":8198:8217   */\n      swap1\n      pop\n        /* \"#utility.yul\":7857:8223   */\n      swap2\n      swap1\n      pop\n      jump\t// out\n        /* \"#utility.yul\":8229:8648   */\n    tag_36:\n        /* \"#utility.yul\":8395:8399   */\n      0x00\n        /* \"#utility.yul\":8433:8435   */\n      0x20\n        /* \"#utility.yul\":8422:8431   */\n      dup3\n        /* \"#utility.yul\":8418:8436   */\n      add\n        /* \"#utility.yul\":8410:8436   */\n      swap1\n      pop\n        /* \"#utility.yul\":8482:8491   */\n      dup2\n        /* \"#utility.yul\":8476:8480   */\n      dup2\n        /* \"#utility.yul\":8472:8492   */\n      sub\n        /* \"#utility.yul\":8468:8469   */\n      0x00\n        /* \"#utility.yul\":8457:8466   */\n      dup4\n        /* \"#utility.yul\":8453:8470   */\n      add\n        /* \"#utility.yul\":8446:8493   */\n      mstore\n        /* \"#utility.yul\":8510:8641   */\n      tag_214\n        /* \"#utility.yul\":8636:8640   */\n      dup2\n        /* \"#utility.yul\":8510:8641   */\n      tag_113\n      jump\t// in\n    tag_214:\n        /* \"#utility.yul\":8502:8641   */\n      swap1\n      pop\n        /* \"#utility.yul\":8229:8648   */\n      swap2\n      swap1\n      pop\n      jump\t// out\n        /* \"#utility.yul\":8654:8875   */\n    tag_114:\n        /* \"#utility.yul\":8794:8828   */\n      0x446561646c696e65206973207061737365642c206e6f206d6f726520766f7469\n        /* \"#utility.yul\":8790:8791   */\n      0x00\n        /* \"#utility.yul\":8782:8788   */\n      dup3\n        /* \"#utility.yul\":8778:8792   */\n      add\n        /* \"#utility.yul\":8771:8829   */\n      mstore\n        /* \"#utility.yul\":8863:8867   */\n      0x6e67000000000000000000000000000000000000000000000000000000000000\n        /* \"#utility.yul\":8858:8860   */\n      0x20\n        /* \"#utility.yul\":8850:8856   */\n      dup3\n        /* \"#utility.yul\":8846:8861   */\n      add\n        /* \"#utility.yul\":8839:8868   */\n      mstore\n        /* \"#utility.yul\":8654:8875   */\n      pop\n      jump\t// out\n        /* \"#utility.yul\":8881:9247   */\n    tag_115:\n        /* \"#utility.yul\":9023:9026   */\n      0x00\n        /* \"#utility.yul\":9044:9111   */\n      tag_217\n        /* \"#utility.yul\":9108:9110   */\n      0x22\n        /* \"#utility.yul\":9103:9106   */\n      dup4\n        /* \"#utility.yul\":9044:9111   */\n      tag_111\n      jump\t// in\n    tag_217:\n        /* \"#utility.yul\":9037:9111   */\n      swap2\n      pop\n        /* \"#utility.yul\":9120:9213   */\n      tag_218\n        /* \"#utility.yul\":9209:9212   */\n      dup3\n        /* \"#utility.yul\":9120:9213   */\n      tag_114\n      jump\t// in\n    tag_218:\n        /* \"#utility.yul\":9238:9240   */\n      0x40\n        /* \"#utility.yul\":9233:9236   */\n      dup3\n        /* \"#utility.yul\":9229:9241   */\n      add\n        /* \"#utility.yul\":9222:9241   */\n      swap1\n      pop\n        /* \"#utility.yul\":8881:9247   */\n      swap2\n      swap1\n      pop\n      jump\t// out\n        /* \"#utility.yul\":9253:9672   */\n    tag_39:\n        /* \"#utility.yul\":9419:9423   */\n      0x00\n        /* \"#utility.yul\":9457:9459   */\n      0x20\n        /* \"#utility.yul\":9446:9455   */\n      dup3\n        /* \"#utility.yul\":9442:9460   */\n      add\n        /* \"#utility.yul\":9434:9460   */\n      swap1\n      pop\n        /* \"#utility.yul\":9506:9515   */\n      dup2\n        /* \"#utility.yul\":9500:9504   */\n      dup2\n        /* \"#utility.yul\":9496:9516   */\n      sub\n        /* \"#utility.yul\":9492:9493   */\n      0x00\n        /* \"#utility.yul\":9481:9490   */\n      dup4\n        /* \"#utility.yul\":9477:9494   */\n      add\n        /* \"#utility.yul\":9470:9517   */\n      mstore\n        /* \"#utility.yul\":9534:9665   */\n      tag_220\n        /* \"#utility.yul\":9660:9664   */\n      dup2\n        /* \"#utility.yul\":9534:9665   */\n      tag_115\n      jump\t// in\n    tag_220:\n        /* \"#utility.yul\":9526:9665   */\n      swap1\n      pop\n        /* \"#utility.yul\":9253:9672   */\n      swap2\n      swap1\n      pop\n      jump\t// out\n        /* \"#utility.yul\":9678:9858   */\n    tag_116:\n        /* \"#utility.yul\":9726:9803   */\n      0x4e487b7100000000000000000000000000000000000000000000000000000000\n        /* \"#utility.yul\":9723:9724   */\n      0x00\n        /* \"#utility.yul\":9716:9804   */\n      mstore\n        /* \"#utility.yul\":9823:9827   */\n      0x11\n        /* \"#utility.yul\":9820:9821   */\n      0x04\n        /* \"#utility.yul\":9813:9828   */\n      mstore\n        /* \"#utility.yul\":9847:9851   */\n      0x24\n        /* \"#utility.yul\":9844:9845   */\n      0x00\n        /* \"#utility.yul\":9837:9852   */\n      revert\n        /* \"#utility.yul\":9864:10097   */\n    tag_42:\n        /* \"#utility.yul\":9903:9906   */\n      0x00\n        /* \"#utility.yul\":9926:9950   */\n      tag_223\n        /* \"#utility.yul\":9944:9949   */\n      dup3\n        /* \"#utility.yul\":9926:9950   */\n      tag_90\n      jump\t// in\n    tag_223:\n        /* \"#utility.yul\":9917:9950   */\n      swap2\n      pop\n        /* \"#utility.yul\":9972:10038   */\n      0xffffffffffffffffffffffffffffffffffffffffffffffffffffffffffffffff\n        /* \"#utility.yul\":9965:9970   */\n      dup3\n        /* \"#utility.yul\":9962:10039   */\n      sub\n        /* \"#utility.yul\":9959:10062   */\n      tag_224\n      jumpi\n        /* \"#utility.yul\":10042:10060   */\n      tag_225\n      tag_116\n      jump\t// in\n    tag_225:\n        /* \"#utility.yul\":9959:10062   */\n    tag_224:\n        /* \"#utility.yul\":10089:10090   */\n      0x01\n        /* \"#utility.yul\":10082:10087   */\n      dup3\n        /* \"#utility.yul\":10078:10091   */\n      add\n        /* \"#utility.yul\":10071:10091   */\n      swap1\n      pop\n        /* \"#utility.yul\":9864:10097   */\n      swap2\n      swap1\n      pop\n      jump\t// out\n        /* \"#utility.yul\":10103:10545   */\n    tag_44:\n        /* \"#utility.yul\":10252:10256   */\n      0x00\n        /* \"#utility.yul\":10290:10292   */\n      0x60\n        /* \"#utility.yul\":10279:10288   */\n      dup3\n        /* \"#utility.yul\":10275:10293   */\n      add\n        /* \"#utility.yul\":10267:10293   */\n      swap1\n      pop\n        /* \"#utility.yul\":10303:10374   */\n      tag_227\n        /* \"#utility.yul\":10371:10372   */\n      0x00\n        /* \"#utility.yul\":10360:10369   */\n      dup4\n        /* \"#utility.yul\":10356:10373   */\n      add\n        /* \"#utility.yul\":10347:10353   */\n      dup7\n        /* \"#utility.yul\":10303:10374   */\n      tag_110\n      jump\t// in\n    tag_227:\n        /* \"#utility.yul\":10384:10456   */\n      tag_228\n        /* \"#utility.yul\":10452:10454   */\n      0x20\n        /* \"#utility.yul\":10441:10450   */\n      dup4\n        /* \"#utility.yul\":10437:10455   */\n      add\n        /* \"#utility.yul\":10428:10434   */\n      dup6\n        /* \"#utility.yul\":10384:10456   */\n      tag_110\n      jump\t// in\n    tag_228:\n        /* \"#utility.yul\":10466:10538   */\n      tag_229\n        /* \"#utility.yul\":10534:10536   */\n      0x40\n        /* \"#utility.yul\":10523:10532   */\n      dup4\n        /* \"#utility.yul\":10519:10537   */\n      add\n        /* \"#utility.yul\":10510:10516   */\n      dup5\n        /* \"#utility.yul\":10466:10538   */\n      tag_109\n      jump\t// in\n    tag_229:\n        /* \"#utility.yul\":10103:10545   */\n      swap5\n      swap4\n      pop\n      pop\n      pop\n      pop\n      jump\t// out\n        /* \"#utility.yul\":10551:10720   */\n    tag_117:\n        /* \"#utility.yul\":10691:10712   */\n      0x43616c6c6572206973206e6f74206f776e657200000000000000000000000000\n        /* \"#utility.yul\":10687:10688   */\n      0x00\n        /* \"#utility.yul\":10679:10685   */\n      dup3\n        /* \"#utility.yul\":10675:10689   */\n      add\n        /* \"#utility.yul\":10668:10713   */\n      mstore\n        /* \"#utility.yul\":10551:10720   */\n      pop\n      jump\t// out\n        /* \"#utility.yul\":10726:11092   */\n    tag_118:\n        /* \"#utility.yul\":10868:10871   */\n      0x00\n        /* \"#utility.yul\":10889:10956   */\n      tag_232\n        /* \"#utility.yul\":10953:10955   */\n      0x13\n        /* \"#utility.yul\":10948:10951   */\n      dup4\n        /* \"#utility.yul\":10889:10956   */\n      tag_111\n      jump\t// in\n    tag_232:\n        /* \"#utility.yul\":10882:10956   */\n      swap2\n      pop\n        /* \"#utility.yul\":10965:11058   */\n      tag_233\n        /* \"#utility.yul\":11054:11057   */\n      dup3\n        /* \"#utility.yul\":10965:11058   */\n      tag_117\n      jump\t// in\n    tag_233:\n        /* \"#utility.yul\":11083:11085   */\n      0x20\n        /* \"#utility.yul\":11078:11081   */\n      dup3\n        /* \"#utility.yul\":11074:11086   */\n      add\n        /* \"#utility.yul\":11067:11086   */\n      swap1\n      pop\n        /* \"#utility.yul\":10726:11092   */\n      swap2\n      swap1\n      pop\n      jump\t// out\n        /* \"#utility.yul\":11098:11517   */\n    tag_48:\n        /* \"#utility.yul\":11264:11268   */\n      0x00\n        /* \"#utility.yul\":11302:11304   */\n      0x20\n        /* \"#utility.yul\":11291:11300   */\n      dup3\n        /* \"#utility.yul\":11287:11305   */\n      add\n        /* \"#utility.yul\":11279:11305   */\n      swap1\n      pop\n        /* \"#utility.yul\":11351:11360   */\n      dup2\n        /* \"#utility.yul\":11345:11349   */\n      dup2\n        /* \"#utility.yul\":11341:11361   */\n      sub\n        /* \"#utility.yul\":11337:11338   */\n      0x00\n        /* \"#utility.yul\":11326:11335   */\n      dup4\n        /* \"#utility.yul\":11322:11339   */\n      add\n        /* \"#utility.yul\":11315:11362   */\n      mstore\n        /* \"#utility.yul\":11379:11510   */\n      tag_235\n        /* \"#utility.yul\":11505:11509   */\n      dup2\n        /* \"#utility.yul\":11379:11510   */\n      tag_118\n      jump\t// in\n    tag_235:\n        /* \"#utility.yul\":11371:11510   */\n      swap1\n      pop\n        /* \"#utility.yul\":11098:11517   */\n      swap2\n      swap1\n      pop\n      jump\t// out\n        /* \"#utility.yul\":11523:11703   */\n    tag_55:\n        /* \"#utility.yul\":11571:11648   */\n      0x4e487b7100000000000000000000000000000000000000000000000000000000\n        /* \"#utility.yul\":11568:11569   */\n      0x00\n        /* \"#utility.yul\":11561:11649   */\n      mstore\n        /* \"#utility.yul\":11668:11672   */\n      0x32\n        /* \"#utility.yul\":11665:11666   */\n      0x04\n        /* \"#utility.yul\":11658:11673   */\n      mstore\n        /* \"#utility.yul\":11692:11696   */\n      0x24\n        /* \"#utility.yul\":11689:11690   */\n      0x00\n        /* \"#utility.yul\":11682:11697   */\n      revert\n\n    auxdata: 0xa26469706673582212202a4b4ccab3b2511b049f2dfecdfb59474568e3d633293e3c56561bbaac5ec9bf64736f6c63430008110033\n}\n",
				"bytecode": {
					"linkReferences": {},
					"object": "608060405234801561001057600080fd5b50336000806101000a81548173ffffffffffffffffffffffffffffffffffffffff021916908373ffffffffffffffffffffffffffffffffffffffff16021790555060008054906101000a900473ffffffffffffffffffffffffffffffffffffffff1673ffffffffffffffffffffffffffffffffffffffff16600073ffffffffffffffffffffffffffffffffffffffff167f342827c97908e5e2f71151c08502a66d44b6f758e3ac2f1de95f02eb95f0a73560405160405180910390a36103e8436100da919061011e565b600481905550610152565b6000819050919050565b7f4e487b7100000000000000000000000000000000000000000000000000000000600052601160045260246000fd5b6000610129826100e5565b9150610134836100e5565b925082820190508082111561014c5761014b6100ef565b5b92915050565b610d2a806101616000396000f3fe608060405234801561001057600080fd5b50600436106100625760003560e01c80630121b93f146100675780631ad1c9e91461008357806329eb7fb51461009f5780638da5cb5b146100bb578063a6f9dae1146100d9578063ea35e805146100f5575b600080fd5b610081600480360381019061007c91906106e2565b610113565b005b61009d600480360381019061009891906108c6565b6102b5565b005b6100b960048036038101906100b491906109d2565b6103d8565b005b6100c361043e565b6040516100d09190610a2a565b60405180910390f35b6100f360048036038101906100ee9190610a45565b610462565b005b6100fd6105ad565b60405161010a9190610a81565b60405180910390f35b600360003373ffffffffffffffffffffffffffffffffffffffff1673ffffffffffffffffffffffffffffffffffffffff16815260200190815260200160002060009054906101000a900460ff1661019f576040517f08c379a000000000000000000000000000000000000000000000000000000000815260040161019690610af9565b60405180910390fd5b60045443106101e3576040517f08c379a00000000000000000000000000000000000000000000000000000000081526004016101da90610b8b565b60405180910390fd5b60016000828152602001908152602001600020600081548092919061020790610bda565b91905055506000600360003373ffffffffffffffffffffffffffffffffffffffff1673ffffffffffffffffffffffffffffffffffffffff16815260200190815260200160002060006101000a81548160ff0219169083151502179055507f4cc53fbb0c3386a0a08451e0710dd6dfaf4631121566865cfbfc744bdb1f2512816001600084815260200190815260200160002054336040516102aa93929190610c22565b60405180910390a150565b60008054906101000a900473ffffffffffffffffffffffffffffffffffffffff1673ffffffffffffffffffffffffffffffffffffffff163373ffffffffffffffffffffffffffffffffffffffff1614610343576040517f08c379a000000000000000000000000000000000000000000000000000000000815260040161033a90610ca5565b60405180910390fd5b60005b81518110156103d45760016003600084848151811061036857610367610cc5565b5b602002602001015173ffffffffffffffffffffffffffffffffffffffff1673ffffffffffffffffffffffffffffffffffffffff16815260200190815260200160002060006101000a81548160ff02191690831515021790555080806103cc90610bda565b915050610346565b5050565b60005b815181101561043a5760028282815181106103f9576103f8610cc5565b5b60200260200101519080600181540180825580915050600190039060005260206000200160009091909190915055808061043290610bda565b9150506103db565b5050565b60008054906101000a900473ffffffffffffffffffffffffffffffffffffffff1681565b60008054906101000a900473ffffffffffffffffffffffffffffffffffffffff1673ffffffffffffffffffffffffffffffffffffffff163373ffffffffffffffffffffffffffffffffffffffff16146104f0576040517f08c379a00000000000000000000000000000000000000000000000000000000081526004016104e790610ca5565b60405180910390fd5b8073ffffffffffffffffffffffffffffffffffffffff1660008054906101000a900473ffffffffffffffffffffffffffffffffffffffff1673ffffffffffffffffffffffffffffffffffffffff167f342827c97908e5e2f71151c08502a66d44b6f758e3ac2f1de95f02eb95f0a73560405160405180910390a3806000806101000a81548173ffffffffffffffffffffffffffffffffffffffff021916908373ffffffffffffffffffffffffffffffffffffffff16021790555050565b60008060026000815481106105c5576105c4610cc5565b5b90600052602060002001549050600080600090505b60028054905081101561068f576000600160006002848154811061060157610600610cc5565b5b906000526020600020015481526020019081526020016000205490508281111561067b57600160006002848154811061063d5761063c610cc5565b5b906000526020600020015481526020019081526020016000205492506002828154811061066d5761066c610cc5565b5b906000526020600020015493505b50808061068790610bda565b9150506105da565b50819250505090565b6000604051905090565b600080fd5b600080fd5b6000819050919050565b6106bf816106ac565b81146106ca57600080fd5b50565b6000813590506106dc816106b6565b92915050565b6000602082840312156106f8576106f76106a2565b5b6000610706848285016106cd565b91505092915050565b600080fd5b6000601f19601f8301169050919050565b7f4e487b7100000000000000000000000000000000000000000000000000000000600052604160045260246000fd5b61075d82610714565b810181811067ffffffffffffffff8211171561077c5761077b610725565b5b80604052505050565b600061078f610698565b905061079b8282610754565b919050565b600067ffffffffffffffff8211156107bb576107ba610725565b5b602082029050602081019050919050565b600080fd5b600073ffffffffffffffffffffffffffffffffffffffff82169050919050565b60006107fc826107d1565b9050919050565b61080c816107f1565b811461081757600080fd5b50565b60008135905061082981610803565b92915050565b600061084261083d846107a0565b610785565b90508083825260208201905060208402830185811115610865576108646107cc565b5b835b8181101561088e578061087a888261081a565b845260208401935050602081019050610867565b5050509392505050565b600082601f8301126108ad576108ac61070f565b5b81356108bd84826020860161082f565b91505092915050565b6000602082840312156108dc576108db6106a2565b5b600082013567ffffffffffffffff8111156108fa576108f96106a7565b5b61090684828501610898565b91505092915050565b600067ffffffffffffffff82111561092a57610929610725565b5b602082029050602081019050919050565b600061094e6109498461090f565b610785565b90508083825260208201905060208402830185811115610971576109706107cc565b5b835b8181101561099a578061098688826106cd565b845260208401935050602081019050610973565b5050509392505050565b600082601f8301126109b9576109b861070f565b5b81356109c984826020860161093b565b91505092915050565b6000602082840312156109e8576109e76106a2565b5b600082013567ffffffffffffffff811115610a0657610a056106a7565b5b610a12848285016109a4565b91505092915050565b610a24816107f1565b82525050565b6000602082019050610a3f6000830184610a1b565b92915050565b600060208284031215610a5b57610a5a6106a2565b5b6000610a698482850161081a565b91505092915050565b610a7b816106ac565b82525050565b6000602082019050610a966000830184610a72565b92915050565b600082825260208201905092915050565b7f596f75206d6179206e6f7420766f746521000000000000000000000000000000600082015250565b6000610ae3601183610a9c565b9150610aee82610aad565b602082019050919050565b60006020820190508181036000830152610b1281610ad6565b9050919050565b7f446561646c696e65206973207061737365642c206e6f206d6f726520766f746960008201527f6e67000000000000000000000000000000000000000000000000000000000000602082015250565b6000610b75602283610a9c565b9150610b8082610b19565b604082019050919050565b60006020820190508181036000830152610ba481610b68565b9050919050565b7f4e487b7100000000000000000000000000000000000000000000000000000000600052601160045260246000fd5b6000610be5826106ac565b91507fffffffffffffffffffffffffffffffffffffffffffffffffffffffffffffffff8203610c1757610c16610bab565b5b600182019050919050565b6000606082019050610c376000830186610a72565b610c446020830185610a72565b610c516040830184610a1b565b949350505050565b7f43616c6c6572206973206e6f74206f776e657200000000000000000000000000600082015250565b6000610c8f601383610a9c565b9150610c9a82610c59565b602082019050919050565b60006020820190508181036000830152610cbe81610c82565b9050919050565b7f4e487b7100000000000000000000000000000000000000000000000000000000600052603260045260246000fdfea26469706673582212202a4b4ccab3b2511b049f2dfecdfb59474568e3d633293e3c56561bbaac5ec9bf64736f6c63430008110033",
					"opcodes": "PUSH1 0x80 PUSH1 0x40 MSTORE CALLVALUE DUP1 ISZERO PUSH2 0x10 JUMPI PUSH1 0x0 DUP1 REVERT JUMPDEST POP CALLER PUSH1 0x0 DUP1 PUSH2 0x100 EXP DUP2 SLOAD DUP2 PUSH20 0xFFFFFFFFFFFFFFFFFFFFFFFFFFFFFFFFFFFFFFFF MUL NOT AND SWAP1 DUP4 PUSH20 0xFFFFFFFFFFFFFFFFFFFFFFFFFFFFFFFFFFFFFFFF AND MUL OR SWAP1 SSTORE POP PUSH1 0x0 DUP1 SLOAD SWAP1 PUSH2 0x100 EXP SWAP1 DIV PUSH20 0xFFFFFFFFFFFFFFFFFFFFFFFFFFFFFFFFFFFFFFFF AND PUSH20 0xFFFFFFFFFFFFFFFFFFFFFFFFFFFFFFFFFFFFFFFF AND PUSH1 0x0 PUSH20 0xFFFFFFFFFFFFFFFFFFFFFFFFFFFFFFFFFFFFFFFF AND PUSH32 0x342827C97908E5E2F71151C08502A66D44B6F758E3AC2F1DE95F02EB95F0A735 PUSH1 0x40 MLOAD PUSH1 0x40 MLOAD DUP1 SWAP2 SUB SWAP1 LOG3 PUSH2 0x3E8 NUMBER PUSH2 0xDA SWAP2 SWAP1 PUSH2 0x11E JUMP JUMPDEST PUSH1 0x4 DUP2 SWAP1 SSTORE POP PUSH2 0x152 JUMP JUMPDEST PUSH1 0x0 DUP2 SWAP1 POP SWAP2 SWAP1 POP JUMP JUMPDEST PUSH32 0x4E487B7100000000000000000000000000000000000000000000000000000000 PUSH1 0x0 MSTORE PUSH1 0x11 PUSH1 0x4 MSTORE PUSH1 0x24 PUSH1 0x0 REVERT JUMPDEST PUSH1 0x0 PUSH2 0x129 DUP3 PUSH2 0xE5 JUMP JUMPDEST SWAP2 POP PUSH2 0x134 DUP4 PUSH2 0xE5 JUMP JUMPDEST SWAP3 POP DUP3 DUP3 ADD SWAP1 POP DUP1 DUP3 GT ISZERO PUSH2 0x14C JUMPI PUSH2 0x14B PUSH2 0xEF JUMP JUMPDEST JUMPDEST SWAP3 SWAP2 POP POP JUMP JUMPDEST PUSH2 0xD2A DUP1 PUSH2 0x161 PUSH1 0x0 CODECOPY PUSH1 0x0 RETURN INVALID PUSH1 0x80 PUSH1 0x40 MSTORE CALLVALUE DUP1 ISZERO PUSH2 0x10 JUMPI PUSH1 0x0 DUP1 REVERT JUMPDEST POP PUSH1 0x4 CALLDATASIZE LT PUSH2 0x62 JUMPI PUSH1 0x0 CALLDATALOAD PUSH1 0xE0 SHR DUP1 PUSH4 0x121B93F EQ PUSH2 0x67 JUMPI DUP1 PUSH4 0x1AD1C9E9 EQ PUSH2 0x83 JUMPI DUP1 PUSH4 0x29EB7FB5 EQ PUSH2 0x9F JUMPI DUP1 PUSH4 0x8DA5CB5B EQ PUSH2 0xBB JUMPI DUP1 PUSH4 0xA6F9DAE1 EQ PUSH2 0xD9 JUMPI DUP1 PUSH4 0xEA35E805 EQ PUSH2 0xF5 JUMPI JUMPDEST PUSH1 0x0 DUP1 REVERT JUMPDEST PUSH2 0x81 PUSH1 0x4 DUP1 CALLDATASIZE SUB DUP2 ADD SWAP1 PUSH2 0x7C SWAP2 SWAP1 PUSH2 0x6E2 JUMP JUMPDEST PUSH2 0x113 JUMP JUMPDEST STOP JUMPDEST PUSH2 0x9D PUSH1 0x4 DUP1 CALLDATASIZE SUB DUP2 ADD SWAP1 PUSH2 0x98 SWAP2 SWAP1 PUSH2 0x8C6 JUMP JUMPDEST PUSH2 0x2B5 JUMP JUMPDEST STOP JUMPDEST PUSH2 0xB9 PUSH1 0x4 DUP1 CALLDATASIZE SUB DUP2 ADD SWAP1 PUSH2 0xB4 SWAP2 SWAP1 PUSH2 0x9D2 JUMP JUMPDEST PUSH2 0x3D8 JUMP JUMPDEST STOP JUMPDEST PUSH2 0xC3 PUSH2 0x43E JUMP JUMPDEST PUSH1 0x40 MLOAD PUSH2 0xD0 SWAP2 SWAP1 PUSH2 0xA2A JUMP JUMPDEST PUSH1 0x40 MLOAD DUP1 SWAP2 SUB SWAP1 RETURN JUMPDEST PUSH2 0xF3 PUSH1 0x4 DUP1 CALLDATASIZE SUB DUP2 ADD SWAP1 PUSH2 0xEE SWAP2 SWAP1 PUSH2 0xA45 JUMP JUMPDEST PUSH2 0x462 JUMP JUMPDEST STOP JUMPDEST PUSH2 0xFD PUSH2 0x5AD JUMP JUMPDEST PUSH1 0x40 MLOAD PUSH2 0x10A SWAP2 SWAP1 PUSH2 0xA81 JUMP JUMPDEST PUSH1 0x40 MLOAD DUP1 SWAP2 SUB SWAP1 RETURN JUMPDEST PUSH1 0x3 PUSH1 0x0 CALLER PUSH20 0xFFFFFFFFFFFFFFFFFFFFFFFFFFFFFFFFFFFFFFFF AND PUSH20 0xFFFFFFFFFFFFFFFFFFFFFFFFFFFFFFFFFFFFFFFF AND DUP2 MSTORE PUSH1 0x20 ADD SWAP1 DUP2 MSTORE PUSH1 0x20 ADD PUSH1 0x0 KECCAK256 PUSH1 0x0 SWAP1 SLOAD SWAP1 PUSH2 0x100 EXP SWAP1 DIV PUSH1 0xFF AND PUSH2 0x19F JUMPI PUSH1 0x40 MLOAD PUSH32 0x8C379A000000000000000000000000000000000000000000000000000000000 DUP2 MSTORE PUSH1 0x4 ADD PUSH2 0x196 SWAP1 PUSH2 0xAF9 JUMP JUMPDEST PUSH1 0x40 MLOAD DUP1 SWAP2 SUB SWAP1 REVERT JUMPDEST PUSH1 0x4 SLOAD NUMBER LT PUSH2 0x1E3 JUMPI PUSH1 0x40 MLOAD PUSH32 0x8C379A000000000000000000000000000000000000000000000000000000000 DUP2 MSTORE PUSH1 0x4 ADD PUSH2 0x1DA SWAP1 PUSH2 0xB8B JUMP JUMPDEST PUSH1 0x40 MLOAD DUP1 SWAP2 SUB SWAP1 REVERT JUMPDEST PUSH1 0x1 PUSH1 0x0 DUP3 DUP2 MSTORE PUSH1 0x20 ADD SWAP1 DUP2 MSTORE PUSH1 0x20 ADD PUSH1 0x0 KECCAK256 PUSH1 0x0 DUP2 SLOAD DUP1 SWAP3 SWAP2 SWAP1 PUSH2 0x207 SWAP1 PUSH2 0xBDA JUMP JUMPDEST SWAP2 SWAP1 POP SSTORE POP PUSH1 0x0 PUSH1 0x3 PUSH1 0x0 CALLER PUSH20 0xFFFFFFFFFFFFFFFFFFFFFFFFFFFFFFFFFFFFFFFF AND PUSH20 0xFFFFFFFFFFFFFFFFFFFFFFFFFFFFFFFFFFFFFFFF AND DUP2 MSTORE PUSH1 0x20 ADD SWAP1 DUP2 MSTORE PUSH1 0x20 ADD PUSH1 0x0 KECCAK256 PUSH1 0x0 PUSH2 0x100 EXP DUP2 SLOAD DUP2 PUSH1 0xFF MUL NOT AND SWAP1 DUP4 ISZERO ISZERO MUL OR SWAP1 SSTORE POP PUSH32 0x4CC53FBB0C3386A0A08451E0710DD6DFAF4631121566865CFBFC744BDB1F2512 DUP2 PUSH1 0x1 PUSH1 0x0 DUP5 DUP2 MSTORE PUSH1 0x20 ADD SWAP1 DUP2 MSTORE PUSH1 0x20 ADD PUSH1 0x0 KECCAK256 SLOAD CALLER PUSH1 0x40 MLOAD PUSH2 0x2AA SWAP4 SWAP3 SWAP2 SWAP1 PUSH2 0xC22 JUMP JUMPDEST PUSH1 0x40 MLOAD DUP1 SWAP2 SUB SWAP1 LOG1 POP JUMP JUMPDEST PUSH1 0x0 DUP1 SLOAD SWAP1 PUSH2 0x100 EXP SWAP1 DIV PUSH20 0xFFFFFFFFFFFFFFFFFFFFFFFFFFFFFFFFFFFFFFFF AND PUSH20 0xFFFFFFFFFFFFFFFFFFFFFFFFFFFFFFFFFFFFFFFF AND CALLER PUSH20 0xFFFFFFFFFFFFFFFFFFFFFFFFFFFFFFFFFFFFFFFF AND EQ PUSH2 0x343 JUMPI PUSH1 0x40 MLOAD PUSH32 0x8C379A000000000000000000000000000000000000000000000000000000000 DUP2 MSTORE PUSH1 0x4 ADD PUSH2 0x33A SWAP1 PUSH2 0xCA5 JUMP JUMPDEST PUSH1 0x40 MLOAD DUP1 SWAP2 SUB SWAP1 REVERT JUMPDEST PUSH1 0x0 JUMPDEST DUP2 MLOAD DUP2 LT ISZERO PUSH2 0x3D4 JUMPI PUSH1 0x1 PUSH1 0x3 PUSH1 0x0 DUP5 DUP5 DUP2 MLOAD DUP2 LT PUSH2 0x368 JUMPI PUSH2 0x367 PUSH2 0xCC5 JUMP JUMPDEST JUMPDEST PUSH1 0x20 MUL PUSH1 0x20 ADD ADD MLOAD PUSH20 0xFFFFFFFFFFFFFFFFFFFFFFFFFFFFFFFFFFFFFFFF AND PUSH20 0xFFFFFFFFFFFFFFFFFFFFFFFFFFFFFFFFFFFFFFFF AND DUP2 MSTORE PUSH1 0x20 ADD SWAP1 DUP2 MSTORE PUSH1 0x20 ADD PUSH1 0x0 KECCAK256 PUSH1 0x0 PUSH2 0x100 EXP DUP2 SLOAD DUP2 PUSH1 0xFF MUL NOT AND SWAP1 DUP4 ISZERO ISZERO MUL OR SWAP1 SSTORE POP DUP1 DUP1 PUSH2 0x3CC SWAP1 PUSH2 0xBDA JUMP JUMPDEST SWAP2 POP POP PUSH2 0x346 JUMP JUMPDEST POP POP JUMP JUMPDEST PUSH1 0x0 JUMPDEST DUP2 MLOAD DUP2 LT ISZERO PUSH2 0x43A JUMPI PUSH1 0x2 DUP3 DUP3 DUP2 MLOAD DUP2 LT PUSH2 0x3F9 JUMPI PUSH2 0x3F8 PUSH2 0xCC5 JUMP JUMPDEST JUMPDEST PUSH1 0x20 MUL PUSH1 0x20 ADD ADD MLOAD SWAP1 DUP1 PUSH1 0x1 DUP2 SLOAD ADD DUP1 DUP3 SSTORE DUP1 SWAP2 POP POP PUSH1 0x1 SWAP1 SUB SWAP1 PUSH1 0x0 MSTORE PUSH1 0x20 PUSH1 0x0 KECCAK256 ADD PUSH1 0x0 SWAP1 SWAP2 SWAP1 SWAP2 SWAP1 SWAP2 POP SSTORE DUP1 DUP1 PUSH2 0x432 SWAP1 PUSH2 0xBDA JUMP JUMPDEST SWAP2 POP POP PUSH2 0x3DB JUMP JUMPDEST POP POP JUMP JUMPDEST PUSH1 0x0 DUP1 SLOAD SWAP1 PUSH2 0x100 EXP SWAP1 DIV PUSH20 0xFFFFFFFFFFFFFFFFFFFFFFFFFFFFFFFFFFFFFFFF AND DUP2 JUMP JUMPDEST PUSH1 0x0 DUP1 SLOAD SWAP1 PUSH2 0x100 EXP SWAP1 DIV PUSH20 0xFFFFFFFFFFFFFFFFFFFFFFFFFFFFFFFFFFFFFFFF AND PUSH20 0xFFFFFFFFFFFFFFFFFFFFFFFFFFFFFFFFFFFFFFFF AND CALLER PUSH20 0xFFFFFFFFFFFFFFFFFFFFFFFFFFFFFFFFFFFFFFFF AND EQ PUSH2 0x4F0 JUMPI PUSH1 0x40 MLOAD PUSH32 0x8C379A000000000000000000000000000000000000000000000000000000000 DUP2 MSTORE PUSH1 0x4 ADD PUSH2 0x4E7 SWAP1 PUSH2 0xCA5 JUMP JUMPDEST PUSH1 0x40 MLOAD DUP1 SWAP2 SUB SWAP1 REVERT JUMPDEST DUP1 PUSH20 0xFFFFFFFFFFFFFFFFFFFFFFFFFFFFFFFFFFFFFFFF AND PUSH1 0x0 DUP1 SLOAD SWAP1 PUSH2 0x100 EXP SWAP1 DIV PUSH20 0xFFFFFFFFFFFFFFFFFFFFFFFFFFFFFFFFFFFFFFFF AND PUSH20 0xFFFFFFFFFFFFFFFFFFFFFFFFFFFFFFFFFFFFFFFF AND PUSH32 0x342827C97908E5E2F71151C08502A66D44B6F758E3AC2F1DE95F02EB95F0A735 PUSH1 0x40 MLOAD PUSH1 0x40 MLOAD DUP1 SWAP2 SUB SWAP1 LOG3 DUP1 PUSH1 0x0 DUP1 PUSH2 0x100 EXP DUP2 SLOAD DUP2 PUSH20 0xFFFFFFFFFFFFFFFFFFFFFFFFFFFFFFFFFFFFFFFF MUL NOT AND SWAP1 DUP4 PUSH20 0xFFFFFFFFFFFFFFFFFFFFFFFFFFFFFFFFFFFFFFFF AND MUL OR SWAP1 SSTORE POP POP JUMP JUMPDEST PUSH1 0x0 DUP1 PUSH1 0x2 PUSH1 0x0 DUP2 SLOAD DUP2 LT PUSH2 0x5C5 JUMPI PUSH2 0x5C4 PUSH2 0xCC5 JUMP JUMPDEST JUMPDEST SWAP1 PUSH1 0x0 MSTORE PUSH1 0x20 PUSH1 0x0 KECCAK256 ADD SLOAD SWAP1 POP PUSH1 0x0 DUP1 PUSH1 0x0 SWAP1 POP JUMPDEST PUSH1 0x2 DUP1 SLOAD SWAP1 POP DUP2 LT ISZERO PUSH2 0x68F JUMPI PUSH1 0x0 PUSH1 0x1 PUSH1 0x0 PUSH1 0x2 DUP5 DUP2 SLOAD DUP2 LT PUSH2 0x601 JUMPI PUSH2 0x600 PUSH2 0xCC5 JUMP JUMPDEST JUMPDEST SWAP1 PUSH1 0x0 MSTORE PUSH1 0x20 PUSH1 0x0 KECCAK256 ADD SLOAD DUP2 MSTORE PUSH1 0x20 ADD SWAP1 DUP2 MSTORE PUSH1 0x20 ADD PUSH1 0x0 KECCAK256 SLOAD SWAP1 POP DUP3 DUP2 GT ISZERO PUSH2 0x67B JUMPI PUSH1 0x1 PUSH1 0x0 PUSH1 0x2 DUP5 DUP2 SLOAD DUP2 LT PUSH2 0x63D JUMPI PUSH2 0x63C PUSH2 0xCC5 JUMP JUMPDEST JUMPDEST SWAP1 PUSH1 0x0 MSTORE PUSH1 0x20 PUSH1 0x0 KECCAK256 ADD SLOAD DUP2 MSTORE PUSH1 0x20 ADD SWAP1 DUP2 MSTORE PUSH1 0x20 ADD PUSH1 0x0 KECCAK256 SLOAD SWAP3 POP PUSH1 0x2 DUP3 DUP2 SLOAD DUP2 LT PUSH2 0x66D JUMPI PUSH2 0x66C PUSH2 0xCC5 JUMP JUMPDEST JUMPDEST SWAP1 PUSH1 0x0 MSTORE PUSH1 0x20 PUSH1 0x0 KECCAK256 ADD SLOAD SWAP4 POP JUMPDEST POP DUP1 DUP1 PUSH2 0x687 SWAP1 PUSH2 0xBDA JUMP JUMPDEST SWAP2 POP POP PUSH2 0x5DA JUMP JUMPDEST POP DUP2 SWAP3 POP POP POP SWAP1 JUMP JUMPDEST PUSH1 0x0 PUSH1 0x40 MLOAD SWAP1 POP SWAP1 JUMP JUMPDEST PUSH1 0x0 DUP1 REVERT JUMPDEST PUSH1 0x0 DUP1 REVERT JUMPDEST PUSH1 0x0 DUP2 SWAP1 POP SWAP2 SWAP1 POP JUMP JUMPDEST PUSH2 0x6BF DUP2 PUSH2 0x6AC JUMP JUMPDEST DUP2 EQ PUSH2 0x6CA JUMPI PUSH1 0x0 DUP1 REVERT JUMPDEST POP JUMP JUMPDEST PUSH1 0x0 DUP2 CALLDATALOAD SWAP1 POP PUSH2 0x6DC DUP2 PUSH2 0x6B6 JUMP JUMPDEST SWAP3 SWAP2 POP POP JUMP JUMPDEST PUSH1 0x0 PUSH1 0x20 DUP3 DUP5 SUB SLT ISZERO PUSH2 0x6F8 JUMPI PUSH2 0x6F7 PUSH2 0x6A2 JUMP JUMPDEST JUMPDEST PUSH1 0x0 PUSH2 0x706 DUP5 DUP3 DUP6 ADD PUSH2 0x6CD JUMP JUMPDEST SWAP2 POP POP SWAP3 SWAP2 POP POP JUMP JUMPDEST PUSH1 0x0 DUP1 REVERT JUMPDEST PUSH1 0x0 PUSH1 0x1F NOT PUSH1 0x1F DUP4 ADD AND SWAP1 POP SWAP2 SWAP1 POP JUMP JUMPDEST PUSH32 0x4E487B7100000000000000000000000000000000000000000000000000000000 PUSH1 0x0 MSTORE PUSH1 0x41 PUSH1 0x4 MSTORE PUSH1 0x24 PUSH1 0x0 REVERT JUMPDEST PUSH2 0x75D DUP3 PUSH2 0x714 JUMP JUMPDEST DUP2 ADD DUP2 DUP2 LT PUSH8 0xFFFFFFFFFFFFFFFF DUP3 GT OR ISZERO PUSH2 0x77C JUMPI PUSH2 0x77B PUSH2 0x725 JUMP JUMPDEST JUMPDEST DUP1 PUSH1 0x40 MSTORE POP POP POP JUMP JUMPDEST PUSH1 0x0 PUSH2 0x78F PUSH2 0x698 JUMP JUMPDEST SWAP1 POP PUSH2 0x79B DUP3 DUP3 PUSH2 0x754 JUMP JUMPDEST SWAP2 SWAP1 POP JUMP JUMPDEST PUSH1 0x0 PUSH8 0xFFFFFFFFFFFFFFFF DUP3 GT ISZERO PUSH2 0x7BB JUMPI PUSH2 0x7BA PUSH2 0x725 JUMP JUMPDEST JUMPDEST PUSH1 0x20 DUP3 MUL SWAP1 POP PUSH1 0x20 DUP2 ADD SWAP1 POP SWAP2 SWAP1 POP JUMP JUMPDEST PUSH1 0x0 DUP1 REVERT JUMPDEST PUSH1 0x0 PUSH20 0xFFFFFFFFFFFFFFFFFFFFFFFFFFFFFFFFFFFFFFFF DUP3 AND SWAP1 POP SWAP2 SWAP1 POP JUMP JUMPDEST PUSH1 0x0 PUSH2 0x7FC DUP3 PUSH2 0x7D1 JUMP JUMPDEST SWAP1 POP SWAP2 SWAP1 POP JUMP JUMPDEST PUSH2 0x80C DUP2 PUSH2 0x7F1 JUMP JUMPDEST DUP2 EQ PUSH2 0x817 JUMPI PUSH1 0x0 DUP1 REVERT JUMPDEST POP JUMP JUMPDEST PUSH1 0x0 DUP2 CALLDATALOAD SWAP1 POP PUSH2 0x829 DUP2 PUSH2 0x803 JUMP JUMPDEST SWAP3 SWAP2 POP POP JUMP JUMPDEST PUSH1 0x0 PUSH2 0x842 PUSH2 0x83D DUP5 PUSH2 0x7A0 JUMP JUMPDEST PUSH2 0x785 JUMP JUMPDEST SWAP1 POP DUP1 DUP4 DUP3 MSTORE PUSH1 0x20 DUP3 ADD SWAP1 POP PUSH1 0x20 DUP5 MUL DUP4 ADD DUP6 DUP2 GT ISZERO PUSH2 0x865 JUMPI PUSH2 0x864 PUSH2 0x7CC JUMP JUMPDEST JUMPDEST DUP4 JUMPDEST DUP2 DUP2 LT ISZERO PUSH2 0x88E JUMPI DUP1 PUSH2 0x87A DUP9 DUP3 PUSH2 0x81A JUMP JUMPDEST DUP5 MSTORE PUSH1 0x20 DUP5 ADD SWAP4 POP POP PUSH1 0x20 DUP2 ADD SWAP1 POP PUSH2 0x867 JUMP JUMPDEST POP POP POP SWAP4 SWAP3 POP POP POP JUMP JUMPDEST PUSH1 0x0 DUP3 PUSH1 0x1F DUP4 ADD SLT PUSH2 0x8AD JUMPI PUSH2 0x8AC PUSH2 0x70F JUMP JUMPDEST JUMPDEST DUP2 CALLDATALOAD PUSH2 0x8BD DUP5 DUP3 PUSH1 0x20 DUP7 ADD PUSH2 0x82F JUMP JUMPDEST SWAP2 POP POP SWAP3 SWAP2 POP POP JUMP JUMPDEST PUSH1 0x0 PUSH1 0x20 DUP3 DUP5 SUB SLT ISZERO PUSH2 0x8DC JUMPI PUSH2 0x8DB PUSH2 0x6A2 JUMP JUMPDEST JUMPDEST PUSH1 0x0 DUP3 ADD CALLDATALOAD PUSH8 0xFFFFFFFFFFFFFFFF DUP2 GT ISZERO PUSH2 0x8FA JUMPI PUSH2 0x8F9 PUSH2 0x6A7 JUMP JUMPDEST JUMPDEST PUSH2 0x906 DUP5 DUP3 DUP6 ADD PUSH2 0x898 JUMP JUMPDEST SWAP2 POP POP SWAP3 SWAP2 POP POP JUMP JUMPDEST PUSH1 0x0 PUSH8 0xFFFFFFFFFFFFFFFF DUP3 GT ISZERO PUSH2 0x92A JUMPI PUSH2 0x929 PUSH2 0x725 JUMP JUMPDEST JUMPDEST PUSH1 0x20 DUP3 MUL SWAP1 POP PUSH1 0x20 DUP2 ADD SWAP1 POP SWAP2 SWAP1 POP JUMP JUMPDEST PUSH1 0x0 PUSH2 0x94E PUSH2 0x949 DUP5 PUSH2 0x90F JUMP JUMPDEST PUSH2 0x785 JUMP JUMPDEST SWAP1 POP DUP1 DUP4 DUP3 MSTORE PUSH1 0x20 DUP3 ADD SWAP1 POP PUSH1 0x20 DUP5 MUL DUP4 ADD DUP6 DUP2 GT ISZERO PUSH2 0x971 JUMPI PUSH2 0x970 PUSH2 0x7CC JUMP JUMPDEST JUMPDEST DUP4 JUMPDEST DUP2 DUP2 LT ISZERO PUSH2 0x99A JUMPI DUP1 PUSH2 0x986 DUP9 DUP3 PUSH2 0x6CD JUMP JUMPDEST DUP5 MSTORE PUSH1 0x20 DUP5 ADD SWAP4 POP POP PUSH1 0x20 DUP2 ADD SWAP1 POP PUSH2 0x973 JUMP JUMPDEST POP POP POP SWAP4 SWAP3 POP POP POP JUMP JUMPDEST PUSH1 0x0 DUP3 PUSH1 0x1F DUP4 ADD SLT PUSH2 0x9B9 JUMPI PUSH2 0x9B8 PUSH2 0x70F JUMP JUMPDEST JUMPDEST DUP2 CALLDATALOAD PUSH2 0x9C9 DUP5 DUP3 PUSH1 0x20 DUP7 ADD PUSH2 0x93B JUMP JUMPDEST SWAP2 POP POP SWAP3 SWAP2 POP POP JUMP JUMPDEST PUSH1 0x0 PUSH1 0x20 DUP3 DUP5 SUB SLT ISZERO PUSH2 0x9E8 JUMPI PUSH2 0x9E7 PUSH2 0x6A2 JUMP JUMPDEST JUMPDEST PUSH1 0x0 DUP3 ADD CALLDATALOAD PUSH8 0xFFFFFFFFFFFFFFFF DUP2 GT ISZERO PUSH2 0xA06 JUMPI PUSH2 0xA05 PUSH2 0x6A7 JUMP JUMPDEST JUMPDEST PUSH2 0xA12 DUP5 DUP3 DUP6 ADD PUSH2 0x9A4 JUMP JUMPDEST SWAP2 POP POP SWAP3 SWAP2 POP POP JUMP JUMPDEST PUSH2 0xA24 DUP2 PUSH2 0x7F1 JUMP JUMPDEST DUP3 MSTORE POP POP JUMP JUMPDEST PUSH1 0x0 PUSH1 0x20 DUP3 ADD SWAP1 POP PUSH2 0xA3F PUSH1 0x0 DUP4 ADD DUP5 PUSH2 0xA1B JUMP JUMPDEST SWAP3 SWAP2 POP POP JUMP JUMPDEST PUSH1 0x0 PUSH1 0x20 DUP3 DUP5 SUB SLT ISZERO PUSH2 0xA5B JUMPI PUSH2 0xA5A PUSH2 0x6A2 JUMP JUMPDEST JUMPDEST PUSH1 0x0 PUSH2 0xA69 DUP5 DUP3 DUP6 ADD PUSH2 0x81A JUMP JUMPDEST SWAP2 POP POP SWAP3 SWAP2 POP POP JUMP JUMPDEST PUSH2 0xA7B DUP2 PUSH2 0x6AC JUMP JUMPDEST DUP3 MSTORE POP POP JUMP JUMPDEST PUSH1 0x0 PUSH1 0x20 DUP3 ADD SWAP1 POP PUSH2 0xA96 PUSH1 0x0 DUP4 ADD DUP5 PUSH2 0xA72 JUMP JUMPDEST SWAP3 SWAP2 POP POP JUMP JUMPDEST PUSH1 0x0 DUP3 DUP3 MSTORE PUSH1 0x20 DUP3 ADD SWAP1 POP SWAP3 SWAP2 POP POP JUMP JUMPDEST PUSH32 0x596F75206D6179206E6F7420766F746521000000000000000000000000000000 PUSH1 0x0 DUP3 ADD MSTORE POP JUMP JUMPDEST PUSH1 0x0 PUSH2 0xAE3 PUSH1 0x11 DUP4 PUSH2 0xA9C JUMP JUMPDEST SWAP2 POP PUSH2 0xAEE DUP3 PUSH2 0xAAD JUMP JUMPDEST PUSH1 0x20 DUP3 ADD SWAP1 POP SWAP2 SWAP1 POP JUMP JUMPDEST PUSH1 0x0 PUSH1 0x20 DUP3 ADD SWAP1 POP DUP2 DUP2 SUB PUSH1 0x0 DUP4 ADD MSTORE PUSH2 0xB12 DUP2 PUSH2 0xAD6 JUMP JUMPDEST SWAP1 POP SWAP2 SWAP1 POP JUMP JUMPDEST PUSH32 0x446561646C696E65206973207061737365642C206E6F206D6F726520766F7469 PUSH1 0x0 DUP3 ADD MSTORE PUSH32 0x6E67000000000000000000000000000000000000000000000000000000000000 PUSH1 0x20 DUP3 ADD MSTORE POP JUMP JUMPDEST PUSH1 0x0 PUSH2 0xB75 PUSH1 0x22 DUP4 PUSH2 0xA9C JUMP JUMPDEST SWAP2 POP PUSH2 0xB80 DUP3 PUSH2 0xB19 JUMP JUMPDEST PUSH1 0x40 DUP3 ADD SWAP1 POP SWAP2 SWAP1 POP JUMP JUMPDEST PUSH1 0x0 PUSH1 0x20 DUP3 ADD SWAP1 POP DUP2 DUP2 SUB PUSH1 0x0 DUP4 ADD MSTORE PUSH2 0xBA4 DUP2 PUSH2 0xB68 JUMP JUMPDEST SWAP1 POP SWAP2 SWAP1 POP JUMP JUMPDEST PUSH32 0x4E487B7100000000000000000000000000000000000000000000000000000000 PUSH1 0x0 MSTORE PUSH1 0x11 PUSH1 0x4 MSTORE PUSH1 0x24 PUSH1 0x0 REVERT JUMPDEST PUSH1 0x0 PUSH2 0xBE5 DUP3 PUSH2 0x6AC JUMP JUMPDEST SWAP2 POP PUSH32 0xFFFFFFFFFFFFFFFFFFFFFFFFFFFFFFFFFFFFFFFFFFFFFFFFFFFFFFFFFFFFFFFF DUP3 SUB PUSH2 0xC17 JUMPI PUSH2 0xC16 PUSH2 0xBAB JUMP JUMPDEST JUMPDEST PUSH1 0x1 DUP3 ADD SWAP1 POP SWAP2 SWAP1 POP JUMP JUMPDEST PUSH1 0x0 PUSH1 0x60 DUP3 ADD SWAP1 POP PUSH2 0xC37 PUSH1 0x0 DUP4 ADD DUP7 PUSH2 0xA72 JUMP JUMPDEST PUSH2 0xC44 PUSH1 0x20 DUP4 ADD DUP6 PUSH2 0xA72 JUMP JUMPDEST PUSH2 0xC51 PUSH1 0x40 DUP4 ADD DUP5 PUSH2 0xA1B JUMP JUMPDEST SWAP5 SWAP4 POP POP POP POP JUMP JUMPDEST PUSH32 0x43616C6C6572206973206E6F74206F776E657200000000000000000000000000 PUSH1 0x0 DUP3 ADD MSTORE POP JUMP JUMPDEST PUSH1 0x0 PUSH2 0xC8F PUSH1 0x13 DUP4 PUSH2 0xA9C JUMP JUMPDEST SWAP2 POP PUSH2 0xC9A DUP3 PUSH2 0xC59 JUMP JUMPDEST PUSH1 0x20 DUP3 ADD SWAP1 POP SWAP2 SWAP1 POP JUMP JUMPDEST PUSH1 0x0 PUSH1 0x20 DUP3 ADD SWAP1 POP DUP2 DUP2 SUB PUSH1 0x0 DUP4 ADD MSTORE PUSH2 0xCBE DUP2 PUSH2 0xC82 JUMP JUMPDEST SWAP1 POP SWAP2 SWAP1 POP JUMP JUMPDEST PUSH32 0x4E487B7100000000000000000000000000000000000000000000000000000000 PUSH1 0x0 MSTORE PUSH1 0x32 PUSH1 0x4 MSTORE PUSH1 0x24 PUSH1 0x0 REVERT INVALID LOG2 PUSH5 0x6970667358 0x22 SLT KECCAK256 0x2A 0x4B 0x4C 0xCA 0xB3 0xB2 MLOAD SHL DIV SWAP16 0x2D INVALID 0xCD 0xFB MSIZE SELFBALANCE GASLIMIT PUSH9 0xE3D633293E3C56561B 0xBA 0xAC 0x5E 0xC9 0xBF PUSH5 0x736F6C6343 STOP ADDMOD GT STOP CALLER "
				},
				"gasEstimates": {
					"creation": {
						"codeDepositCost": "674000",
						"executionCost": "infinite",
						"totalCost": "infinite"
					},
					"external": {
						"addProposals(uint256[])": "infinite",
						"calculateWinner()": "infinite",
						"changeOwner(address)": "30633",
						"giveVoterRights(address[])": "infinite",
						"owner()": "2555",
						"vote(uint256)": "infinite"
					}
				},
				"methodIdentifiers": {
					"addProposals(uint256[])": "29eb7fb5",
					"calculateWinner()": "ea35e805",
					"changeOwner(address)": "a6f9dae1",
					"giveVoterRights(address[])": "1ad1c9e9",
					"owner()": "8da5cb5b",
					"vote(uint256)": "0121b93f"
				}
			},
			"storageLayout": {
				"storage": [
					{
						"astId": 4,
						"contract": "ExerciseOne/exercise1.sol:Voting",
						"label": "owner",
						"offset": 0,
						"slot": "0",
						"type": "t_address"
					},
					{
						"astId": 65,
						"contract": "ExerciseOne/exercise1.sol:Voting",
						"label": "proposals",
						"offset": 0,
						"slot": "1",
						"type": "t_mapping(t_uint256,t_uint256)"
					},
					{
						"astId": 68,
						"contract": "ExerciseOne/exercise1.sol:Voting",
						"label": "proposalIds",
						"offset": 0,
						"slot": "2",
						"type": "t_array(t_uint256)dyn_storage"
					},
					{
						"astId": 72,
						"contract": "ExerciseOne/exercise1.sol:Voting",
						"label": "voterRights",
						"offset": 0,
						"slot": "3",
						"type": "t_mapping(t_address,t_bool)"
					},
					{
						"astId": 74,
						"contract": "ExerciseOne/exercise1.sol:Voting",
						"label": "deadline",
						"offset": 0,
						"slot": "4",
						"type": "t_uint256"
					}
				],
				"types": {
					"t_address": {
						"encoding": "inplace",
						"label": "address",
						"numberOfBytes": "20"
					},
					"t_array(t_uint256)dyn_storage": {
						"base": "t_uint256",
						"encoding": "dynamic_array",
						"label": "uint256[]",
						"numberOfBytes": "32"
					},
					"t_bool": {
						"encoding": "inplace",
						"label": "bool",
						"numberOfBytes": "1"
					},
					"t_mapping(t_address,t_bool)": {
						"encoding": "mapping",
						"key": "t_address",
						"label": "mapping(address => bool)",
						"numberOfBytes": "32",
						"value": "t_bool"
					},
					"t_mapping(t_uint256,t_uint256)": {
						"encoding": "mapping",
						"key": "t_uint256",
						"label": "mapping(uint256 => uint256)",
						"numberOfBytes": "32",
						"value": "t_uint256"
					},
					"t_uint256": {
						"encoding": "inplace",
						"label": "uint256",
						"numberOfBytes": "32"
					}
				}
			},
			"userdoc": {
				"kind": "user",
				"methods": {},
				"version": 1
			}
		}
	}
}