{
	"data": {
		"bytecode": {
			"linkReferences": {},
			"object": "608060405234801561001057600080fd5b50610ef0806100206000396000f3fe608060405234801561001057600080fd5b50600436106100575760003560e01c80630f3fbd911461005c57806335b686131461008c5780635944e7ff146100bf578063a5d566b1146100ef578063db6fd0571461011f575b600080fd5b610076600480360381019061007191906105b4565b61013b565b6040516100839190610616565b60405180910390f35b6100a660048036038101906100a191906105b4565b610169565b6040516100b694939291906106b0565b60405180910390f35b6100d960048036038101906100d491906105b4565b610237565b6040516100e69190610616565b60405180910390f35b610109600480360381019061010491906105b4565b61025f565b60405161011691906107b8565b60405180910390f35b61013960048036038101906101349190610a6b565b610347565b005b6001818051602081018201805184825260208301602085012081835280955050505050506000915090505481565b6000818051602081018201805184825260208301602085012081835280955050505050506000915090508060000154908060010154908060020154908060030180546101b490610b12565b80601f01602080910402602001604051908101604052809291908181526020018280546101e090610b12565b801561022d5780601f106102025761010080835404028352916020019161022d565b820191906000526020600020905b81548152906001019060200180831161021057829003601f168201915b5050505050905084565b60006001826040516102499190610b7f565b9081526020016040518091039020549050919050565b610267610432565b6000826040516102779190610b7f565b90815260200160405180910390206040518060800160405290816000820154815260200160018201548152602001600282015481526020016003820180546102be90610b12565b80601f01602080910402602001604051908101604052809291908181526020018280546102ea90610b12565b80156103375780601f1061030c57610100808354040283529160200191610337565b820191906000526020600020905b81548152906001019060200180831161031a57829003601f168201915b5050505050815250509050919050565b60005b825181101561042d5781818151811061036657610365610b96565b5b6020026020010151600084838151811061038357610382610b96565b5b60200260200101516040516103989190610b7f565b908152602001604051809103902060008201518160000155602082015181600101556040820151816002015560608201518160030190816103d99190610d71565b509050504360018483815181106103f3576103f2610b96565b5b60200260200101516040516104089190610b7f565b908152602001604051809103902081905550808061042590610e72565b91505061034a565b505050565b6040518060800160405280600081526020016000815260200160008152602001606081525090565b6000604051905090565b600080fd5b600080fd5b600080fd5b600080fd5b6000601f19601f8301169050919050565b7f4e487b7100000000000000000000000000000000000000000000000000000000600052604160045260246000fd5b6104c182610478565b810181811067ffffffffffffffff821117156104e0576104df610489565b5b80604052505050565b60006104f361045a565b90506104ff82826104b8565b919050565b600067ffffffffffffffff82111561051f5761051e610489565b5b61052882610478565b9050602081019050919050565b82818337600083830152505050565b600061055761055284610504565b6104e9565b90508281526020810184848401111561057357610572610473565b5b61057e848285610535565b509392505050565b600082601f83011261059b5761059a61046e565b5b81356105ab848260208601610544565b91505092915050565b6000602082840312156105ca576105c9610464565b5b600082013567ffffffffffffffff8111156105e8576105e7610469565b5b6105f484828501610586565b91505092915050565b6000819050919050565b610610816105fd565b82525050565b600060208201905061062b6000830184610607565b92915050565b600081519050919050565b600082825260208201905092915050565b60005b8381101561066b578082015181840152602081019050610650565b60008484015250505050565b600061068282610631565b61068c818561063c565b935061069c81856020860161064d565b6106a581610478565b840191505092915050565b60006080820190506106c56000830187610607565b6106d26020830186610607565b6106df6040830185610607565b81810360608301526106f18184610677565b905095945050505050565b610705816105fd565b82525050565b600082825260208201905092915050565b600061072782610631565b610731818561070b565b935061074181856020860161064d565b61074a81610478565b840191505092915050565b600060808301600083015161076d60008601826106fc565b50602083015161078060208601826106fc565b50604083015161079360408601826106fc565b50606083015184820360608601526107ab828261071c565b9150508091505092915050565b600060208201905081810360008301526107d28184610755565b905092915050565b600067ffffffffffffffff8211156107f5576107f4610489565b5b602082029050602081019050919050565b600080fd5b600061081e610819846107da565b6104e9565b9050808382526020820190506020840283018581111561084157610840610806565b5b835b8181101561088857803567ffffffffffffffff8111156108665761086561046e565b5b8086016108738982610586565b85526020850194505050602081019050610843565b5050509392505050565b600082601f8301126108a7576108a661046e565b5b81356108b784826020860161080b565b91505092915050565b600067ffffffffffffffff8211156108db576108da610489565b5b602082029050602081019050919050565b600080fd5b600080fd5b6108ff816105fd565b811461090a57600080fd5b50565b60008135905061091c816108f6565b92915050565b600060808284031215610938576109376108ec565b5b61094260806104e9565b905060006109528482850161090d565b60008301525060206109668482850161090d565b602083015250604061097a8482850161090d565b604083015250606082013567ffffffffffffffff81111561099e5761099d6108f1565b5b6109aa84828501610586565b60608301525092915050565b60006109c96109c4846108c0565b6104e9565b905080838252602082019050602084028301858111156109ec576109eb610806565b5b835b81811015610a3357803567ffffffffffffffff811115610a1157610a1061046e565b5b808601610a1e8982610922565b855260208501945050506020810190506109ee565b5050509392505050565b600082601f830112610a5257610a5161046e565b5b8135610a628482602086016109b6565b91505092915050565b60008060408385031215610a8257610a81610464565b5b600083013567ffffffffffffffff811115610aa057610a9f610469565b5b610aac85828601610892565b925050602083013567ffffffffffffffff811115610acd57610acc610469565b5b610ad985828601610a3d565b9150509250929050565b7f4e487b7100000000000000000000000000000000000000000000000000000000600052602260045260246000fd5b60006002820490506001821680610b2a57607f821691505b602082108103610b3d57610b3c610ae3565b5b50919050565b600081905092915050565b6000610b5982610631565b610b638185610b43565b9350610b7381856020860161064d565b80840191505092915050565b6000610b8b8284610b4e565b915081905092915050565b7f4e487b7100000000000000000000000000000000000000000000000000000000600052603260045260246000fd5b60008190508160005260206000209050919050565b60006020601f8301049050919050565b600082821b905092915050565b600060088302610c277fffffffffffffffffffffffffffffffffffffffffffffffffffffffffffffffff82610bea565b610c318683610bea565b95508019841693508086168417925050509392505050565b6000819050919050565b6000610c6e610c69610c64846105fd565b610c49565b6105fd565b9050919050565b6000819050919050565b610c8883610c53565b610c9c610c9482610c75565b848454610bf7565b825550505050565b600090565b610cb1610ca4565b610cbc818484610c7f565b505050565b5b81811015610ce057610cd5600082610ca9565b600181019050610cc2565b5050565b601f821115610d2557610cf681610bc5565b610cff84610bda565b81016020851015610d0e578190505b610d22610d1a85610bda565b830182610cc1565b50505b505050565b600082821c905092915050565b6000610d4860001984600802610d2a565b1980831691505092915050565b6000610d618383610d37565b9150826002028217905092915050565b610d7a82610631565b67ffffffffffffffff811115610d9357610d92610489565b5b610d9d8254610b12565b610da8828285610ce4565b600060209050601f831160018114610ddb5760008415610dc9578287015190505b610dd38582610d55565b865550610e3b565b601f198416610de986610bc5565b60005b82811015610e1157848901518255600182019150602085019450602081019050610dec565b86831015610e2e5784890151610e2a601f891682610d37565b8355505b6001600288020188555050505b505050505050565b7f4e487b7100000000000000000000000000000000000000000000000000000000600052601160045260246000fd5b6000610e7d826105fd565b91507fffffffffffffffffffffffffffffffffffffffffffffffffffffffffffffffff8203610eaf57610eae610e43565b5b60018201905091905056fea26469706673582212206724a88b269c72f9aa00ac530e562b57b8e79c0dc62525d456004a81aad8c66564736f6c63430008110033",
			"opcodes": "PUSH1 0x80 PUSH1 0x40 MSTORE CALLVALUE DUP1 ISZERO PUSH2 0x10 JUMPI PUSH1 0x0 DUP1 REVERT JUMPDEST POP PUSH2 0xEF0 DUP1 PUSH2 0x20 PUSH1 0x0 CODECOPY PUSH1 0x0 RETURN INVALID PUSH1 0x80 PUSH1 0x40 MSTORE CALLVALUE DUP1 ISZERO PUSH2 0x10 JUMPI PUSH1 0x0 DUP1 REVERT JUMPDEST POP PUSH1 0x4 CALLDATASIZE LT PUSH2 0x57 JUMPI PUSH1 0x0 CALLDATALOAD PUSH1 0xE0 SHR DUP1 PUSH4 0xF3FBD91 EQ PUSH2 0x5C JUMPI DUP1 PUSH4 0x35B68613 EQ PUSH2 0x8C JUMPI DUP1 PUSH4 0x5944E7FF EQ PUSH2 0xBF JUMPI DUP1 PUSH4 0xA5D566B1 EQ PUSH2 0xEF JUMPI DUP1 PUSH4 0xDB6FD057 EQ PUSH2 0x11F JUMPI JUMPDEST PUSH1 0x0 DUP1 REVERT JUMPDEST PUSH2 0x76 PUSH1 0x4 DUP1 CALLDATASIZE SUB DUP2 ADD SWAP1 PUSH2 0x71 SWAP2 SWAP1 PUSH2 0x5B4 JUMP JUMPDEST PUSH2 0x13B JUMP JUMPDEST PUSH1 0x40 MLOAD PUSH2 0x83 SWAP2 SWAP1 PUSH2 0x616 JUMP JUMPDEST PUSH1 0x40 MLOAD DUP1 SWAP2 SUB SWAP1 RETURN JUMPDEST PUSH2 0xA6 PUSH1 0x4 DUP1 CALLDATASIZE SUB DUP2 ADD SWAP1 PUSH2 0xA1 SWAP2 SWAP1 PUSH2 0x5B4 JUMP JUMPDEST PUSH2 0x169 JUMP JUMPDEST PUSH1 0x40 MLOAD PUSH2 0xB6 SWAP5 SWAP4 SWAP3 SWAP2 SWAP1 PUSH2 0x6B0 JUMP JUMPDEST PUSH1 0x40 MLOAD DUP1 SWAP2 SUB SWAP1 RETURN JUMPDEST PUSH2 0xD9 PUSH1 0x4 DUP1 CALLDATASIZE SUB DUP2 ADD SWAP1 PUSH2 0xD4 SWAP2 SWAP1 PUSH2 0x5B4 JUMP JUMPDEST PUSH2 0x237 JUMP JUMPDEST PUSH1 0x40 MLOAD PUSH2 0xE6 SWAP2 SWAP1 PUSH2 0x616 JUMP JUMPDEST PUSH1 0x40 MLOAD DUP1 SWAP2 SUB SWAP1 RETURN JUMPDEST PUSH2 0x109 PUSH1 0x4 DUP1 CALLDATASIZE SUB DUP2 ADD SWAP1 PUSH2 0x104 SWAP2 SWAP1 PUSH2 0x5B4 JUMP JUMPDEST PUSH2 0x25F JUMP JUMPDEST PUSH1 0x40 MLOAD PUSH2 0x116 SWAP2 SWAP1 PUSH2 0x7B8 JUMP JUMPDEST PUSH1 0x40 MLOAD DUP1 SWAP2 SUB SWAP1 RETURN JUMPDEST PUSH2 0x139 PUSH1 0x4 DUP1 CALLDATASIZE SUB DUP2 ADD SWAP1 PUSH2 0x134 SWAP2 SWAP1 PUSH2 0xA6B JUMP JUMPDEST PUSH2 0x347 JUMP JUMPDEST STOP JUMPDEST PUSH1 0x1 DUP2 DUP1 MLOAD PUSH1 0x20 DUP2 ADD DUP3 ADD DUP1 MLOAD DUP5 DUP3 MSTORE PUSH1 0x20 DUP4 ADD PUSH1 0x20 DUP6 ADD KECCAK256 DUP2 DUP4 MSTORE DUP1 SWAP6 POP POP POP POP POP POP PUSH1 0x0 SWAP2 POP SWAP1 POP SLOAD DUP2 JUMP JUMPDEST PUSH1 0x0 DUP2 DUP1 MLOAD PUSH1 0x20 DUP2 ADD DUP3 ADD DUP1 MLOAD DUP5 DUP3 MSTORE PUSH1 0x20 DUP4 ADD PUSH1 0x20 DUP6 ADD KECCAK256 DUP2 DUP4 MSTORE DUP1 SWAP6 POP POP POP POP POP POP PUSH1 0x0 SWAP2 POP SWAP1 POP DUP1 PUSH1 0x0 ADD SLOAD SWAP1 DUP1 PUSH1 0x1 ADD SLOAD SWAP1 DUP1 PUSH1 0x2 ADD SLOAD SWAP1 DUP1 PUSH1 0x3 ADD DUP1 SLOAD PUSH2 0x1B4 SWAP1 PUSH2 0xB12 JUMP JUMPDEST DUP1 PUSH1 0x1F ADD PUSH1 0x20 DUP1 SWAP2 DIV MUL PUSH1 0x20 ADD PUSH1 0x40 MLOAD SWAP1 DUP2 ADD PUSH1 0x40 MSTORE DUP1 SWAP3 SWAP2 SWAP1 DUP2 DUP2 MSTORE PUSH1 0x20 ADD DUP3 DUP1 SLOAD PUSH2 0x1E0 SWAP1 PUSH2 0xB12 JUMP JUMPDEST DUP1 ISZERO PUSH2 0x22D JUMPI DUP1 PUSH1 0x1F LT PUSH2 0x202 JUMPI PUSH2 0x100 DUP1 DUP4 SLOAD DIV MUL DUP4 MSTORE SWAP2 PUSH1 0x20 ADD SWAP2 PUSH2 0x22D JUMP JUMPDEST DUP3 ADD SWAP2 SWAP1 PUSH1 0x0 MSTORE PUSH1 0x20 PUSH1 0x0 KECCAK256 SWAP1 JUMPDEST DUP2 SLOAD DUP2 MSTORE SWAP1 PUSH1 0x1 ADD SWAP1 PUSH1 0x20 ADD DUP1 DUP4 GT PUSH2 0x210 JUMPI DUP3 SWAP1 SUB PUSH1 0x1F AND DUP3 ADD SWAP2 JUMPDEST POP POP POP POP POP SWAP1 POP DUP5 JUMP JUMPDEST PUSH1 0x0 PUSH1 0x1 DUP3 PUSH1 0x40 MLOAD PUSH2 0x249 SWAP2 SWAP1 PUSH2 0xB7F JUMP JUMPDEST SWAP1 DUP2 MSTORE PUSH1 0x20 ADD PUSH1 0x40 MLOAD DUP1 SWAP2 SUB SWAP1 KECCAK256 SLOAD SWAP1 POP SWAP2 SWAP1 POP JUMP JUMPDEST PUSH2 0x267 PUSH2 0x432 JUMP JUMPDEST PUSH1 0x0 DUP3 PUSH1 0x40 MLOAD PUSH2 0x277 SWAP2 SWAP1 PUSH2 0xB7F JUMP JUMPDEST SWAP1 DUP2 MSTORE PUSH1 0x20 ADD PUSH1 0x40 MLOAD DUP1 SWAP2 SUB SWAP1 KECCAK256 PUSH1 0x40 MLOAD DUP1 PUSH1 0x80 ADD PUSH1 0x40 MSTORE SWAP1 DUP2 PUSH1 0x0 DUP3 ADD SLOAD DUP2 MSTORE PUSH1 0x20 ADD PUSH1 0x1 DUP3 ADD SLOAD DUP2 MSTORE PUSH1 0x20 ADD PUSH1 0x2 DUP3 ADD SLOAD DUP2 MSTORE PUSH1 0x20 ADD PUSH1 0x3 DUP3 ADD DUP1 SLOAD PUSH2 0x2BE SWAP1 PUSH2 0xB12 JUMP JUMPDEST DUP1 PUSH1 0x1F ADD PUSH1 0x20 DUP1 SWAP2 DIV MUL PUSH1 0x20 ADD PUSH1 0x40 MLOAD SWAP1 DUP2 ADD PUSH1 0x40 MSTORE DUP1 SWAP3 SWAP2 SWAP1 DUP2 DUP2 MSTORE PUSH1 0x20 ADD DUP3 DUP1 SLOAD PUSH2 0x2EA SWAP1 PUSH2 0xB12 JUMP JUMPDEST DUP1 ISZERO PUSH2 0x337 JUMPI DUP1 PUSH1 0x1F LT PUSH2 0x30C JUMPI PUSH2 0x100 DUP1 DUP4 SLOAD DIV MUL DUP4 MSTORE SWAP2 PUSH1 0x20 ADD SWAP2 PUSH2 0x337 JUMP JUMPDEST DUP3 ADD SWAP2 SWAP1 PUSH1 0x0 MSTORE PUSH1 0x20 PUSH1 0x0 KECCAK256 SWAP1 JUMPDEST DUP2 SLOAD DUP2 MSTORE SWAP1 PUSH1 0x1 ADD SWAP1 PUSH1 0x20 ADD DUP1 DUP4 GT PUSH2 0x31A JUMPI DUP3 SWAP1 SUB PUSH1 0x1F AND DUP3 ADD SWAP2 JUMPDEST POP POP POP POP POP DUP2 MSTORE POP POP SWAP1 POP SWAP2 SWAP1 POP JUMP JUMPDEST PUSH1 0x0 JUMPDEST DUP3 MLOAD DUP2 LT ISZERO PUSH2 0x42D JUMPI DUP2 DUP2 DUP2 MLOAD DUP2 LT PUSH2 0x366 JUMPI PUSH2 0x365 PUSH2 0xB96 JUMP JUMPDEST JUMPDEST PUSH1 0x20 MUL PUSH1 0x20 ADD ADD MLOAD PUSH1 0x0 DUP5 DUP4 DUP2 MLOAD DUP2 LT PUSH2 0x383 JUMPI PUSH2 0x382 PUSH2 0xB96 JUMP JUMPDEST JUMPDEST PUSH1 0x20 MUL PUSH1 0x20 ADD ADD MLOAD PUSH1 0x40 MLOAD PUSH2 0x398 SWAP2 SWAP1 PUSH2 0xB7F JUMP JUMPDEST SWAP1 DUP2 MSTORE PUSH1 0x20 ADD PUSH1 0x40 MLOAD DUP1 SWAP2 SUB SWAP1 KECCAK256 PUSH1 0x0 DUP3 ADD MLOAD DUP2 PUSH1 0x0 ADD SSTORE PUSH1 0x20 DUP3 ADD MLOAD DUP2 PUSH1 0x1 ADD SSTORE PUSH1 0x40 DUP3 ADD MLOAD DUP2 PUSH1 0x2 ADD SSTORE PUSH1 0x60 DUP3 ADD MLOAD DUP2 PUSH1 0x3 ADD SWAP1 DUP2 PUSH2 0x3D9 SWAP2 SWAP1 PUSH2 0xD71 JUMP JUMPDEST POP SWAP1 POP POP NUMBER PUSH1 0x1 DUP5 DUP4 DUP2 MLOAD DUP2 LT PUSH2 0x3F3 JUMPI PUSH2 0x3F2 PUSH2 0xB96 JUMP JUMPDEST JUMPDEST PUSH1 0x20 MUL PUSH1 0x20 ADD ADD MLOAD PUSH1 0x40 MLOAD PUSH2 0x408 SWAP2 SWAP1 PUSH2 0xB7F JUMP JUMPDEST SWAP1 DUP2 MSTORE PUSH1 0x20 ADD PUSH1 0x40 MLOAD DUP1 SWAP2 SUB SWAP1 KECCAK256 DUP2 SWAP1 SSTORE POP DUP1 DUP1 PUSH2 0x425 SWAP1 PUSH2 0xE72 JUMP JUMPDEST SWAP2 POP POP PUSH2 0x34A JUMP JUMPDEST POP POP POP JUMP JUMPDEST PUSH1 0x40 MLOAD DUP1 PUSH1 0x80 ADD PUSH1 0x40 MSTORE DUP1 PUSH1 0x0 DUP2 MSTORE PUSH1 0x20 ADD PUSH1 0x0 DUP2 MSTORE PUSH1 0x20 ADD PUSH1 0x0 DUP2 MSTORE PUSH1 0x20 ADD PUSH1 0x60 DUP2 MSTORE POP SWAP1 JUMP JUMPDEST PUSH1 0x0 PUSH1 0x40 MLOAD SWAP1 POP SWAP1 JUMP JUMPDEST PUSH1 0x0 DUP1 REVERT JUMPDEST PUSH1 0x0 DUP1 REVERT JUMPDEST PUSH1 0x0 DUP1 REVERT JUMPDEST PUSH1 0x0 DUP1 REVERT JUMPDEST PUSH1 0x0 PUSH1 0x1F NOT PUSH1 0x1F DUP4 ADD AND SWAP1 POP SWAP2 SWAP1 POP JUMP JUMPDEST PUSH32 0x4E487B7100000000000000000000000000000000000000000000000000000000 PUSH1 0x0 MSTORE PUSH1 0x41 PUSH1 0x4 MSTORE PUSH1 0x24 PUSH1 0x0 REVERT JUMPDEST PUSH2 0x4C1 DUP3 PUSH2 0x478 JUMP JUMPDEST DUP2 ADD DUP2 DUP2 LT PUSH8 0xFFFFFFFFFFFFFFFF DUP3 GT OR ISZERO PUSH2 0x4E0 JUMPI PUSH2 0x4DF PUSH2 0x489 JUMP JUMPDEST JUMPDEST DUP1 PUSH1 0x40 MSTORE POP POP POP JUMP JUMPDEST PUSH1 0x0 PUSH2 0x4F3 PUSH2 0x45A JUMP JUMPDEST SWAP1 POP PUSH2 0x4FF DUP3 DUP3 PUSH2 0x4B8 JUMP JUMPDEST SWAP2 SWAP1 POP JUMP JUMPDEST PUSH1 0x0 PUSH8 0xFFFFFFFFFFFFFFFF DUP3 GT ISZERO PUSH2 0x51F JUMPI PUSH2 0x51E PUSH2 0x489 JUMP JUMPDEST JUMPDEST PUSH2 0x528 DUP3 PUSH2 0x478 JUMP JUMPDEST SWAP1 POP PUSH1 0x20 DUP2 ADD SWAP1 POP SWAP2 SWAP1 POP JUMP JUMPDEST DUP3 DUP2 DUP4 CALLDATACOPY PUSH1 0x0 DUP4 DUP4 ADD MSTORE POP POP POP JUMP JUMPDEST PUSH1 0x0 PUSH2 0x557 PUSH2 0x552 DUP5 PUSH2 0x504 JUMP JUMPDEST PUSH2 0x4E9 JUMP JUMPDEST SWAP1 POP DUP3 DUP2 MSTORE PUSH1 0x20 DUP2 ADD DUP5 DUP5 DUP5 ADD GT ISZERO PUSH2 0x573 JUMPI PUSH2 0x572 PUSH2 0x473 JUMP JUMPDEST JUMPDEST PUSH2 0x57E DUP5 DUP3 DUP6 PUSH2 0x535 JUMP JUMPDEST POP SWAP4 SWAP3 POP POP POP JUMP JUMPDEST PUSH1 0x0 DUP3 PUSH1 0x1F DUP4 ADD SLT PUSH2 0x59B JUMPI PUSH2 0x59A PUSH2 0x46E JUMP JUMPDEST JUMPDEST DUP2 CALLDATALOAD PUSH2 0x5AB DUP5 DUP3 PUSH1 0x20 DUP7 ADD PUSH2 0x544 JUMP JUMPDEST SWAP2 POP POP SWAP3 SWAP2 POP POP JUMP JUMPDEST PUSH1 0x0 PUSH1 0x20 DUP3 DUP5 SUB SLT ISZERO PUSH2 0x5CA JUMPI PUSH2 0x5C9 PUSH2 0x464 JUMP JUMPDEST JUMPDEST PUSH1 0x0 DUP3 ADD CALLDATALOAD PUSH8 0xFFFFFFFFFFFFFFFF DUP2 GT ISZERO PUSH2 0x5E8 JUMPI PUSH2 0x5E7 PUSH2 0x469 JUMP JUMPDEST JUMPDEST PUSH2 0x5F4 DUP5 DUP3 DUP6 ADD PUSH2 0x586 JUMP JUMPDEST SWAP2 POP POP SWAP3 SWAP2 POP POP JUMP JUMPDEST PUSH1 0x0 DUP2 SWAP1 POP SWAP2 SWAP1 POP JUMP JUMPDEST PUSH2 0x610 DUP2 PUSH2 0x5FD JUMP JUMPDEST DUP3 MSTORE POP POP JUMP JUMPDEST PUSH1 0x0 PUSH1 0x20 DUP3 ADD SWAP1 POP PUSH2 0x62B PUSH1 0x0 DUP4 ADD DUP5 PUSH2 0x607 JUMP JUMPDEST SWAP3 SWAP2 POP POP JUMP JUMPDEST PUSH1 0x0 DUP2 MLOAD SWAP1 POP SWAP2 SWAP1 POP JUMP JUMPDEST PUSH1 0x0 DUP3 DUP3 MSTORE PUSH1 0x20 DUP3 ADD SWAP1 POP SWAP3 SWAP2 POP POP JUMP JUMPDEST PUSH1 0x0 JUMPDEST DUP4 DUP2 LT ISZERO PUSH2 0x66B JUMPI DUP1 DUP3 ADD MLOAD DUP2 DUP5 ADD MSTORE PUSH1 0x20 DUP2 ADD SWAP1 POP PUSH2 0x650 JUMP JUMPDEST PUSH1 0x0 DUP5 DUP5 ADD MSTORE POP POP POP POP JUMP JUMPDEST PUSH1 0x0 PUSH2 0x682 DUP3 PUSH2 0x631 JUMP JUMPDEST PUSH2 0x68C DUP2 DUP6 PUSH2 0x63C JUMP JUMPDEST SWAP4 POP PUSH2 0x69C DUP2 DUP6 PUSH1 0x20 DUP7 ADD PUSH2 0x64D JUMP JUMPDEST PUSH2 0x6A5 DUP2 PUSH2 0x478 JUMP JUMPDEST DUP5 ADD SWAP2 POP POP SWAP3 SWAP2 POP POP JUMP JUMPDEST PUSH1 0x0 PUSH1 0x80 DUP3 ADD SWAP1 POP PUSH2 0x6C5 PUSH1 0x0 DUP4 ADD DUP8 PUSH2 0x607 JUMP JUMPDEST PUSH2 0x6D2 PUSH1 0x20 DUP4 ADD DUP7 PUSH2 0x607 JUMP JUMPDEST PUSH2 0x6DF PUSH1 0x40 DUP4 ADD DUP6 PUSH2 0x607 JUMP JUMPDEST DUP2 DUP2 SUB PUSH1 0x60 DUP4 ADD MSTORE PUSH2 0x6F1 DUP2 DUP5 PUSH2 0x677 JUMP JUMPDEST SWAP1 POP SWAP6 SWAP5 POP POP POP POP POP JUMP JUMPDEST PUSH2 0x705 DUP2 PUSH2 0x5FD JUMP JUMPDEST DUP3 MSTORE POP POP JUMP JUMPDEST PUSH1 0x0 DUP3 DUP3 MSTORE PUSH1 0x20 DUP3 ADD SWAP1 POP SWAP3 SWAP2 POP POP JUMP JUMPDEST PUSH1 0x0 PUSH2 0x727 DUP3 PUSH2 0x631 JUMP JUMPDEST PUSH2 0x731 DUP2 DUP6 PUSH2 0x70B JUMP JUMPDEST SWAP4 POP PUSH2 0x741 DUP2 DUP6 PUSH1 0x20 DUP7 ADD PUSH2 0x64D JUMP JUMPDEST PUSH2 0x74A DUP2 PUSH2 0x478 JUMP JUMPDEST DUP5 ADD SWAP2 POP POP SWAP3 SWAP2 POP POP JUMP JUMPDEST PUSH1 0x0 PUSH1 0x80 DUP4 ADD PUSH1 0x0 DUP4 ADD MLOAD PUSH2 0x76D PUSH1 0x0 DUP7 ADD DUP3 PUSH2 0x6FC JUMP JUMPDEST POP PUSH1 0x20 DUP4 ADD MLOAD PUSH2 0x780 PUSH1 0x20 DUP7 ADD DUP3 PUSH2 0x6FC JUMP JUMPDEST POP PUSH1 0x40 DUP4 ADD MLOAD PUSH2 0x793 PUSH1 0x40 DUP7 ADD DUP3 PUSH2 0x6FC JUMP JUMPDEST POP PUSH1 0x60 DUP4 ADD MLOAD DUP5 DUP3 SUB PUSH1 0x60 DUP7 ADD MSTORE PUSH2 0x7AB DUP3 DUP3 PUSH2 0x71C JUMP JUMPDEST SWAP2 POP POP DUP1 SWAP2 POP POP SWAP3 SWAP2 POP POP JUMP JUMPDEST PUSH1 0x0 PUSH1 0x20 DUP3 ADD SWAP1 POP DUP2 DUP2 SUB PUSH1 0x0 DUP4 ADD MSTORE PUSH2 0x7D2 DUP2 DUP5 PUSH2 0x755 JUMP JUMPDEST SWAP1 POP SWAP3 SWAP2 POP POP JUMP JUMPDEST PUSH1 0x0 PUSH8 0xFFFFFFFFFFFFFFFF DUP3 GT ISZERO PUSH2 0x7F5 JUMPI PUSH2 0x7F4 PUSH2 0x489 JUMP JUMPDEST JUMPDEST PUSH1 0x20 DUP3 MUL SWAP1 POP PUSH1 0x20 DUP2 ADD SWAP1 POP SWAP2 SWAP1 POP JUMP JUMPDEST PUSH1 0x0 DUP1 REVERT JUMPDEST PUSH1 0x0 PUSH2 0x81E PUSH2 0x819 DUP5 PUSH2 0x7DA JUMP JUMPDEST PUSH2 0x4E9 JUMP JUMPDEST SWAP1 POP DUP1 DUP4 DUP3 MSTORE PUSH1 0x20 DUP3 ADD SWAP1 POP PUSH1 0x20 DUP5 MUL DUP4 ADD DUP6 DUP2 GT ISZERO PUSH2 0x841 JUMPI PUSH2 0x840 PUSH2 0x806 JUMP JUMPDEST JUMPDEST DUP4 JUMPDEST DUP2 DUP2 LT ISZERO PUSH2 0x888 JUMPI DUP1 CALLDATALOAD PUSH8 0xFFFFFFFFFFFFFFFF DUP2 GT ISZERO PUSH2 0x866 JUMPI PUSH2 0x865 PUSH2 0x46E JUMP JUMPDEST JUMPDEST DUP1 DUP7 ADD PUSH2 0x873 DUP10 DUP3 PUSH2 0x586 JUMP JUMPDEST DUP6 MSTORE PUSH1 0x20 DUP6 ADD SWAP5 POP POP POP PUSH1 0x20 DUP2 ADD SWAP1 POP PUSH2 0x843 JUMP JUMPDEST POP POP POP SWAP4 SWAP3 POP POP POP JUMP JUMPDEST PUSH1 0x0 DUP3 PUSH1 0x1F DUP4 ADD SLT PUSH2 0x8A7 JUMPI PUSH2 0x8A6 PUSH2 0x46E JUMP JUMPDEST JUMPDEST DUP2 CALLDATALOAD PUSH2 0x8B7 DUP5 DUP3 PUSH1 0x20 DUP7 ADD PUSH2 0x80B JUMP JUMPDEST SWAP2 POP POP SWAP3 SWAP2 POP POP JUMP JUMPDEST PUSH1 0x0 PUSH8 0xFFFFFFFFFFFFFFFF DUP3 GT ISZERO PUSH2 0x8DB JUMPI PUSH2 0x8DA PUSH2 0x489 JUMP JUMPDEST JUMPDEST PUSH1 0x20 DUP3 MUL SWAP1 POP PUSH1 0x20 DUP2 ADD SWAP1 POP SWAP2 SWAP1 POP JUMP JUMPDEST PUSH1 0x0 DUP1 REVERT JUMPDEST PUSH1 0x0 DUP1 REVERT JUMPDEST PUSH2 0x8FF DUP2 PUSH2 0x5FD JUMP JUMPDEST DUP2 EQ PUSH2 0x90A JUMPI PUSH1 0x0 DUP1 REVERT JUMPDEST POP JUMP JUMPDEST PUSH1 0x0 DUP2 CALLDATALOAD SWAP1 POP PUSH2 0x91C DUP2 PUSH2 0x8F6 JUMP JUMPDEST SWAP3 SWAP2 POP POP JUMP JUMPDEST PUSH1 0x0 PUSH1 0x80 DUP3 DUP5 SUB SLT ISZERO PUSH2 0x938 JUMPI PUSH2 0x937 PUSH2 0x8EC JUMP JUMPDEST JUMPDEST PUSH2 0x942 PUSH1 0x80 PUSH2 0x4E9 JUMP JUMPDEST SWAP1 POP PUSH1 0x0 PUSH2 0x952 DUP5 DUP3 DUP6 ADD PUSH2 0x90D JUMP JUMPDEST PUSH1 0x0 DUP4 ADD MSTORE POP PUSH1 0x20 PUSH2 0x966 DUP5 DUP3 DUP6 ADD PUSH2 0x90D JUMP JUMPDEST PUSH1 0x20 DUP4 ADD MSTORE POP PUSH1 0x40 PUSH2 0x97A DUP5 DUP3 DUP6 ADD PUSH2 0x90D JUMP JUMPDEST PUSH1 0x40 DUP4 ADD MSTORE POP PUSH1 0x60 DUP3 ADD CALLDATALOAD PUSH8 0xFFFFFFFFFFFFFFFF DUP2 GT ISZERO PUSH2 0x99E JUMPI PUSH2 0x99D PUSH2 0x8F1 JUMP JUMPDEST JUMPDEST PUSH2 0x9AA DUP5 DUP3 DUP6 ADD PUSH2 0x586 JUMP JUMPDEST PUSH1 0x60 DUP4 ADD MSTORE POP SWAP3 SWAP2 POP POP JUMP JUMPDEST PUSH1 0x0 PUSH2 0x9C9 PUSH2 0x9C4 DUP5 PUSH2 0x8C0 JUMP JUMPDEST PUSH2 0x4E9 JUMP JUMPDEST SWAP1 POP DUP1 DUP4 DUP3 MSTORE PUSH1 0x20 DUP3 ADD SWAP1 POP PUSH1 0x20 DUP5 MUL DUP4 ADD DUP6 DUP2 GT ISZERO PUSH2 0x9EC JUMPI PUSH2 0x9EB PUSH2 0x806 JUMP JUMPDEST JUMPDEST DUP4 JUMPDEST DUP2 DUP2 LT ISZERO PUSH2 0xA33 JUMPI DUP1 CALLDATALOAD PUSH8 0xFFFFFFFFFFFFFFFF DUP2 GT ISZERO PUSH2 0xA11 JUMPI PUSH2 0xA10 PUSH2 0x46E JUMP JUMPDEST JUMPDEST DUP1 DUP7 ADD PUSH2 0xA1E DUP10 DUP3 PUSH2 0x922 JUMP JUMPDEST DUP6 MSTORE PUSH1 0x20 DUP6 ADD SWAP5 POP POP POP PUSH1 0x20 DUP2 ADD SWAP1 POP PUSH2 0x9EE JUMP JUMPDEST POP POP POP SWAP4 SWAP3 POP POP POP JUMP JUMPDEST PUSH1 0x0 DUP3 PUSH1 0x1F DUP4 ADD SLT PUSH2 0xA52 JUMPI PUSH2 0xA51 PUSH2 0x46E JUMP JUMPDEST JUMPDEST DUP2 CALLDATALOAD PUSH2 0xA62 DUP5 DUP3 PUSH1 0x20 DUP7 ADD PUSH2 0x9B6 JUMP JUMPDEST SWAP2 POP POP SWAP3 SWAP2 POP POP JUMP JUMPDEST PUSH1 0x0 DUP1 PUSH1 0x40 DUP4 DUP6 SUB SLT ISZERO PUSH2 0xA82 JUMPI PUSH2 0xA81 PUSH2 0x464 JUMP JUMPDEST JUMPDEST PUSH1 0x0 DUP4 ADD CALLDATALOAD PUSH8 0xFFFFFFFFFFFFFFFF DUP2 GT ISZERO PUSH2 0xAA0 JUMPI PUSH2 0xA9F PUSH2 0x469 JUMP JUMPDEST JUMPDEST PUSH2 0xAAC DUP6 DUP3 DUP7 ADD PUSH2 0x892 JUMP JUMPDEST SWAP3 POP POP PUSH1 0x20 DUP4 ADD CALLDATALOAD PUSH8 0xFFFFFFFFFFFFFFFF DUP2 GT ISZERO PUSH2 0xACD JUMPI PUSH2 0xACC PUSH2 0x469 JUMP JUMPDEST JUMPDEST PUSH2 0xAD9 DUP6 DUP3 DUP7 ADD PUSH2 0xA3D JUMP JUMPDEST SWAP2 POP POP SWAP3 POP SWAP3 SWAP1 POP JUMP JUMPDEST PUSH32 0x4E487B7100000000000000000000000000000000000000000000000000000000 PUSH1 0x0 MSTORE PUSH1 0x22 PUSH1 0x4 MSTORE PUSH1 0x24 PUSH1 0x0 REVERT JUMPDEST PUSH1 0x0 PUSH1 0x2 DUP3 DIV SWAP1 POP PUSH1 0x1 DUP3 AND DUP1 PUSH2 0xB2A JUMPI PUSH1 0x7F DUP3 AND SWAP2 POP JUMPDEST PUSH1 0x20 DUP3 LT DUP2 SUB PUSH2 0xB3D JUMPI PUSH2 0xB3C PUSH2 0xAE3 JUMP JUMPDEST JUMPDEST POP SWAP2 SWAP1 POP JUMP JUMPDEST PUSH1 0x0 DUP2 SWAP1 POP SWAP3 SWAP2 POP POP JUMP JUMPDEST PUSH1 0x0 PUSH2 0xB59 DUP3 PUSH2 0x631 JUMP JUMPDEST PUSH2 0xB63 DUP2 DUP6 PUSH2 0xB43 JUMP JUMPDEST SWAP4 POP PUSH2 0xB73 DUP2 DUP6 PUSH1 0x20 DUP7 ADD PUSH2 0x64D JUMP JUMPDEST DUP1 DUP5 ADD SWAP2 POP POP SWAP3 SWAP2 POP POP JUMP JUMPDEST PUSH1 0x0 PUSH2 0xB8B DUP3 DUP5 PUSH2 0xB4E JUMP JUMPDEST SWAP2 POP DUP2 SWAP1 POP SWAP3 SWAP2 POP POP JUMP JUMPDEST PUSH32 0x4E487B7100000000000000000000000000000000000000000000000000000000 PUSH1 0x0 MSTORE PUSH1 0x32 PUSH1 0x4 MSTORE PUSH1 0x24 PUSH1 0x0 REVERT JUMPDEST PUSH1 0x0 DUP2 SWAP1 POP DUP2 PUSH1 0x0 MSTORE PUSH1 0x20 PUSH1 0x0 KECCAK256 SWAP1 POP SWAP2 SWAP1 POP JUMP JUMPDEST PUSH1 0x0 PUSH1 0x20 PUSH1 0x1F DUP4 ADD DIV SWAP1 POP SWAP2 SWAP1 POP JUMP JUMPDEST PUSH1 0x0 DUP3 DUP3 SHL SWAP1 POP SWAP3 SWAP2 POP POP JUMP JUMPDEST PUSH1 0x0 PUSH1 0x8 DUP4 MUL PUSH2 0xC27 PUSH32 0xFFFFFFFFFFFFFFFFFFFFFFFFFFFFFFFFFFFFFFFFFFFFFFFFFFFFFFFFFFFFFFFF DUP3 PUSH2 0xBEA JUMP JUMPDEST PUSH2 0xC31 DUP7 DUP4 PUSH2 0xBEA JUMP JUMPDEST SWAP6 POP DUP1 NOT DUP5 AND SWAP4 POP DUP1 DUP7 AND DUP5 OR SWAP3 POP POP POP SWAP4 SWAP3 POP POP POP JUMP JUMPDEST PUSH1 0x0 DUP2 SWAP1 POP SWAP2 SWAP1 POP JUMP JUMPDEST PUSH1 0x0 PUSH2 0xC6E PUSH2 0xC69 PUSH2 0xC64 DUP5 PUSH2 0x5FD JUMP JUMPDEST PUSH2 0xC49 JUMP JUMPDEST PUSH2 0x5FD JUMP JUMPDEST SWAP1 POP SWAP2 SWAP1 POP JUMP JUMPDEST PUSH1 0x0 DUP2 SWAP1 POP SWAP2 SWAP1 POP JUMP JUMPDEST PUSH2 0xC88 DUP4 PUSH2 0xC53 JUMP JUMPDEST PUSH2 0xC9C PUSH2 0xC94 DUP3 PUSH2 0xC75 JUMP JUMPDEST DUP5 DUP5 SLOAD PUSH2 0xBF7 JUMP JUMPDEST DUP3 SSTORE POP POP POP POP JUMP JUMPDEST PUSH1 0x0 SWAP1 JUMP JUMPDEST PUSH2 0xCB1 PUSH2 0xCA4 JUMP JUMPDEST PUSH2 0xCBC DUP2 DUP5 DUP5 PUSH2 0xC7F JUMP JUMPDEST POP POP POP JUMP JUMPDEST JUMPDEST DUP2 DUP2 LT ISZERO PUSH2 0xCE0 JUMPI PUSH2 0xCD5 PUSH1 0x0 DUP3 PUSH2 0xCA9 JUMP JUMPDEST PUSH1 0x1 DUP2 ADD SWAP1 POP PUSH2 0xCC2 JUMP JUMPDEST POP POP JUMP JUMPDEST PUSH1 0x1F DUP3 GT ISZERO PUSH2 0xD25 JUMPI PUSH2 0xCF6 DUP2 PUSH2 0xBC5 JUMP JUMPDEST PUSH2 0xCFF DUP5 PUSH2 0xBDA JUMP JUMPDEST DUP2 ADD PUSH1 0x20 DUP6 LT ISZERO PUSH2 0xD0E JUMPI DUP2 SWAP1 POP JUMPDEST PUSH2 0xD22 PUSH2 0xD1A DUP6 PUSH2 0xBDA JUMP JUMPDEST DUP4 ADD DUP3 PUSH2 0xCC1 JUMP JUMPDEST POP POP JUMPDEST POP POP POP JUMP JUMPDEST PUSH1 0x0 DUP3 DUP3 SHR SWAP1 POP SWAP3 SWAP2 POP POP JUMP JUMPDEST PUSH1 0x0 PUSH2 0xD48 PUSH1 0x0 NOT DUP5 PUSH1 0x8 MUL PUSH2 0xD2A JUMP JUMPDEST NOT DUP1 DUP4 AND SWAP2 POP POP SWAP3 SWAP2 POP POP JUMP JUMPDEST PUSH1 0x0 PUSH2 0xD61 DUP4 DUP4 PUSH2 0xD37 JUMP JUMPDEST SWAP2 POP DUP3 PUSH1 0x2 MUL DUP3 OR SWAP1 POP SWAP3 SWAP2 POP POP JUMP JUMPDEST PUSH2 0xD7A DUP3 PUSH2 0x631 JUMP JUMPDEST PUSH8 0xFFFFFFFFFFFFFFFF DUP2 GT ISZERO PUSH2 0xD93 JUMPI PUSH2 0xD92 PUSH2 0x489 JUMP JUMPDEST JUMPDEST PUSH2 0xD9D DUP3 SLOAD PUSH2 0xB12 JUMP JUMPDEST PUSH2 0xDA8 DUP3 DUP3 DUP6 PUSH2 0xCE4 JUMP JUMPDEST PUSH1 0x0 PUSH1 0x20 SWAP1 POP PUSH1 0x1F DUP4 GT PUSH1 0x1 DUP2 EQ PUSH2 0xDDB JUMPI PUSH1 0x0 DUP5 ISZERO PUSH2 0xDC9 JUMPI DUP3 DUP8 ADD MLOAD SWAP1 POP JUMPDEST PUSH2 0xDD3 DUP6 DUP3 PUSH2 0xD55 JUMP JUMPDEST DUP7 SSTORE POP PUSH2 0xE3B JUMP JUMPDEST PUSH1 0x1F NOT DUP5 AND PUSH2 0xDE9 DUP7 PUSH2 0xBC5 JUMP JUMPDEST PUSH1 0x0 JUMPDEST DUP3 DUP2 LT ISZERO PUSH2 0xE11 JUMPI DUP5 DUP10 ADD MLOAD DUP3 SSTORE PUSH1 0x1 DUP3 ADD SWAP2 POP PUSH1 0x20 DUP6 ADD SWAP5 POP PUSH1 0x20 DUP2 ADD SWAP1 POP PUSH2 0xDEC JUMP JUMPDEST DUP7 DUP4 LT ISZERO PUSH2 0xE2E JUMPI DUP5 DUP10 ADD MLOAD PUSH2 0xE2A PUSH1 0x1F DUP10 AND DUP3 PUSH2 0xD37 JUMP JUMPDEST DUP4 SSTORE POP JUMPDEST PUSH1 0x1 PUSH1 0x2 DUP9 MUL ADD DUP9 SSTORE POP POP POP JUMPDEST POP POP POP POP POP POP JUMP JUMPDEST PUSH32 0x4E487B7100000000000000000000000000000000000000000000000000000000 PUSH1 0x0 MSTORE PUSH1 0x11 PUSH1 0x4 MSTORE PUSH1 0x24 PUSH1 0x0 REVERT JUMPDEST PUSH1 0x0 PUSH2 0xE7D DUP3 PUSH2 0x5FD JUMP JUMPDEST SWAP2 POP PUSH32 0xFFFFFFFFFFFFFFFFFFFFFFFFFFFFFFFFFFFFFFFFFFFFFFFFFFFFFFFFFFFFFFFF DUP3 SUB PUSH2 0xEAF JUMPI PUSH2 0xEAE PUSH2 0xE43 JUMP JUMPDEST JUMPDEST PUSH1 0x1 DUP3 ADD SWAP1 POP SWAP2 SWAP1 POP JUMP INVALID LOG2 PUSH5 0x6970667358 0x22 SLT KECCAK256 PUSH8 0x24A88B269C72F9AA STOP 0xAC MSTORE8 0xE JUMP 0x2B JUMPI 0xB8 0xE7 SWAP13 0xD 0xC6 0x25 0x25 0xD4 JUMP STOP 0x4A DUP2 0xAA 0xD8 0xC6 PUSH6 0x64736F6C6343 STOP ADDMOD GT STOP CALLER "
		},
		"gasEstimates": {
			"creation": {
				"codeDepositCost": "764800",
				"executionCost": "799",
				"totalCost": "765599"
			},
			"external": {
				"AddNewData(string[],(uint256,uint256,uint256,string)[])": "infinite",
				"GetCityData(string)": "infinite",
				"GetCityTime(string)": "infinite",
				"age(string)": "infinite",
				"weatherByPlace(string)": "infinite"
			}
		},
		"methodIdentifiers": {
			"AddNewData(string[],(uint256,uint256,uint256,string)[])": "db6fd057",
			"GetCityData(string)": "a5d566b1",
			"GetCityTime(string)": "5944e7ff",
			"age(string)": "0f3fbd91",
			"weatherByPlace(string)": "35b68613"
		}
	},
	"abi": [
		{
			"inputs": [
				{
					"internalType": "string[]",
					"name": "cities",
					"type": "string[]"
				},
				{
					"components": [
						{
							"internalType": "uint256",
							"name": "Temperature",
							"type": "uint256"
						},
						{
							"internalType": "uint256",
							"name": "WindSpeed",
							"type": "uint256"
						},
						{
							"internalType": "uint256",
							"name": "PercentageRain",
							"type": "uint256"
						},
						{
							"internalType": "string",
							"name": "WindDirection",
							"type": "string"
						}
					],
					"internalType": "struct OpenWeatherData.WeatherData[]",
					"name": "_weatherData",
					"type": "tuple[]"
				}
			],
			"name": "AddNewData",
			"outputs": [],
			"stateMutability": "nonpayable",
			"type": "function"
		},
		{
			"inputs": [
				{
					"internalType": "string",
					"name": "place",
					"type": "string"
				}
			],
			"name": "GetCityData",
			"outputs": [
				{
					"components": [
						{
							"internalType": "uint256",
							"name": "Temperature",
							"type": "uint256"
						},
						{
							"internalType": "uint256",
							"name": "WindSpeed",
							"type": "uint256"
						},
						{
							"internalType": "uint256",
							"name": "PercentageRain",
							"type": "uint256"
						},
						{
							"internalType": "string",
							"name": "WindDirection",
							"type": "string"
						}
					],
					"internalType": "struct OpenWeatherData.WeatherData",
					"name": "_weatherData",
					"type": "tuple"
				}
			],
			"stateMutability": "view",
			"type": "function"
		},
		{
			"inputs": [
				{
					"internalType": "string",
					"name": "place",
					"type": "string"
				}
			],
			"name": "GetCityTime",
			"outputs": [
				{
					"internalType": "uint256",
					"name": "time",
					"type": "uint256"
				}
			],
			"stateMutability": "view",
			"type": "function"
		},
		{
			"inputs": [
				{
					"internalType": "string",
					"name": "",
					"type": "string"
				}
			],
			"name": "age",
			"outputs": [
				{
					"internalType": "uint256",
					"name": "",
					"type": "uint256"
				}
			],
			"stateMutability": "view",
			"type": "function"
		},
		{
			"inputs": [
				{
					"internalType": "string",
					"name": "",
					"type": "string"
				}
			],
			"name": "weatherByPlace",
			"outputs": [
				{
					"internalType": "uint256",
					"name": "Temperature",
					"type": "uint256"
				},
				{
					"internalType": "uint256",
					"name": "WindSpeed",
					"type": "uint256"
				},
				{
					"internalType": "uint256",
					"name": "PercentageRain",
					"type": "uint256"
				},
				{
					"internalType": "string",
					"name": "WindDirection",
					"type": "string"
				}
			],
			"stateMutability": "view",
			"type": "function"
		}
	]
}